:020000040800F2
:10000000F408002099010008D91E00089D1C000872
:10001000D51E000849060008F91E0008000000006F
:10002000000000000000000000000000E11E0008C9
:100030004D06000800000000DD1E0008E51E000857
:10004000B3010008B3010008B3010008B3010008C0
:10005000B3010008B3010008B3010008B3010008B0
:10006000B3010008B3010008B3010008B3010008A0
:10007000B3010008B3010008B3010008B301000890
:10008000B3010008B3010008B3010008B301000880
:10009000B3010008B3010008B3010008B301000870
:1000A000B3010008B3010008B3010008ED1E000809
:1000B000B3010008B3010008B3010008B301000850
:1000C000B3010008B3010008B3010008B301000840
:1000D000B3010008B3010008B3010008B301000830
:1000E000B3010008B3010008B301000800F002F8F2
:1000F00000F043F80AA090E8000C82448344AAF17F
:100100000107DA4501D100F038F8AFF2090EBAE87C
:100110000F0013F0010F18BFFB1A43F0010318473B
:1001200094540000B4540000103A24BF78C878C139
:10013000FAD8520724BF30C830C144BF04680C60ED
:10014000704700000023002400250026103A28BF35
:1001500078C1FBD8520728BF30C148BF0B60704739
:100160001FB59DE8030000F0FBF800F0C5F81FBDC7
:1001700010B5002000F0ACF910BD00F0EEF911460A
:10018000FFF7EEFF04F05AFA00F00CFA03B4FFF7A1
:10019000EFFF03BC00F0C2F8094880470948004758
:1001A000FEE7FEE7FEE7FEE7FEE7FEE7FEE7FEE727
:1001B000FEE7FEE704480549054A064B7047000084
:1001C000E91E0008ED00000890040020F40800205B
:1001D000900800209008002070B5064600F0A4F8B2
:1001E000056806F10B0020F00704B4429CBF002014
:1001F00070BD2B466A68BAB11068A04210D304F1F2
:10020000080188423CBF5068586007D351681019F4
:1002100041601168091B016058601460101D70BDB9
:1002200013465268002AE7D12146284600F084F898
:100230000028DED170BD70B50446051F00F074F8CB
:100240000068002C14BF446870BD002C18BFAC427D
:100250003CBF20466468F8D301680A18AA4218BF58
:10026000456003D12A680546114401602868411998
:10027000A1421CBF6C6070BD616869602168084460
:10028000286070BD10B5002000F0B7F8FFF770FFD0
:10029000BDE81040012000F041B80B460146184669
:1002A00000F094B84FF0000200B51346944696460D
:1002B000203922BFA0E80C50A0E80C50B1F1200179
:1002C000BFF4F7AF090728BFA0E80C5048BF0CC027
:1002D0005DF804EB890028BF40F8042B08BF704785
:1002E00048BF20F8022B11F0804F18BF00F8012BF7
:1002F000704770477047704770B5064C7C44064D98
:100300007D4404E02046016808448047241DAC4237
:10031000F8D170BDD4520000E45200000149182009
:10032000ABBEFEE726000200004870473800002000
:10033000704770477047704738B504460A4600203A
:100340006946AFF30080002808BF38BD0246009917
:10035000204600F0A3F8012038BD012000F0F6B8D7
:10036000F8B5AFF30080054600200C46102000BF12
:100370000646A819A0420DD9324669460020AFF3BF
:100380000080070008BF00F0E1F80098A04218BF05
:100390000546C419FFF7C8FF05600746F01D20F0A9
:1003A00007004619284600F00AF8B44208BFF8BD15
:1003B000A21B31463868BDE8F84000F06FB8002154
:1003C0000160C0E901107047102070472DE9F0412D
:1003D000074615460E461020FFF7FEFE04000AD021
:1003E0006760C4E9026500F055F8016821600460A7
:1003F0000020BDE8F0810120FBE710B500F08EF889
:10040000BDE8104000F085B84FF0013C50F8042BD7
:1004100051F8043B9A4221D1A2EB0C03934313EA17
:10042000CC1317D150F8042B51F8043B9A4215D144
:10043000A2EB0C03934313EACC130BD150F8042B1B
:1004400051F8043B9A4209D1A2EB0C03934313EAFF
:10045000CC13DBD04FF00000704700BFD01A01BAB8
:10046000B1FA81F101F0180122FA01F0CB40DBB2C0
:10047000C0B2C01AC1F120012CFA01F3D11A914384
:1004800011EAC311E6D170470048704730000020E0
:10049000704700000048704768000020034640682D
:1004A0008C46002818BF88423CBF03464068F8D3FA
:1004B00018681844884207D00CF1030020F00700A8
:1004C000001D411A521A0146081D0A60FFF7B3BE0B
:1004D0002DE9F0410646FFF7DDFF8046454613E073
:1004E00016B1E068B0420ED120682860D4E901015D
:1004F000D8F8007088472046FFF79DFED8F8000026
:10050000B842EBD100E025462C68002CE8D1BDE8CC
:10051000F081002801D0FFF701BF704710B500211E
:1005200002A000F048F8012010BD000053494741E7
:100530004252543A2041626E6F726D616C20746554
:10054000726D696E6174696F6E00000010B500F025
:100550004BF8BDE81040FFF7DCBF7546FFF794FF8E
:10056000AE4605006946534620F00700854618B0A0
:1005700020B5FFF71FFEBDE820404FF000064FF00A
:1005800000074FF000084FF0000BAC46ACE8C00984
:10059000ACE8C009ACE8C009ACE8C00921F007012B
:1005A0008D46704710B50446AFF300802046BDE885
:1005B0001040FFF7EBBD70B505460C460A2000E081
:1005C0006D1C00F039F835B128780028F8D102E028
:1005D000641C00F031F814B120780028F8D1BDE88F
:1005E00070400A2000F028B810B5012805D000217D
:1005F00003A0FFF7E0FF012010BD09A1F8E700000C
:1006000053494752544D454D3A204F7574206F66FB
:100610002068656170206D656D6F72790000000063
:100620003A2048656170206D656D6F727920636F47
:10063000727275707465640008B569468DF80000C3
:100640000320ABBE08BD0000FEE7000070470000BD
:10065000EFF3108072B600BFFEE700002DE9F04F07
:1006600082B00E68002E00F0FD8041F20042C4F21C
:100670000102042340F2004E904208BF03234FF6CC
:10068000FF7CC4F2010E009300240123C1F2100C80
:100690004FF0000A4FF0000946E000BF012504F0CA
:1006A0000C030F279F402BEA070705FA03F33B4390
:1006B00042F82630D1F804B05FEACB32DEF80020F1
:1006C00054BF22EA080242EA0802CEF80020DEF80F
:1006D00004205FEA8B3354BF22EA080242EA080290
:1006E000CEF804205FEACB23DEF8082054BF22EACC
:1006F000080242EA08025FEA8B2340F20C43CEF87C
:100700000820C4F201031A6854BF22EA080242EA30
:1007100008021A6001230E680AF1010A36FA0AF289
:1007200004F1040400F09E8003FA0AF816EA080FA8
:10073000F1D04A68624511DC122A55D8DFE802F090
:10074000340A4448545454545454545454545454EF
:10075000544C5000D1F80C9046E000BF4FF6FF75A6
:10076000C1F22105AA420FDC0025C1F21105AA42FF
:100770001AD00025C1F21205AA4215D00025C1F2F7
:100780002105AA4210D02FE00025C1F22205AA427D
:100790000AD00025C1F23105AA4205D00025C1F2D8
:1007A0003205AA4220D100BF8A684AB1012A14BF8B
:1007B000C0F81480C0F810804FF0080914E000BFA2
:1007C0004FF0040910E000BFCA6802F108090BE00D
:1007D0004FF0000908E000BFCA6802F1040903E015
:1007E000CA6802F10C0900BF22460546BAF1080F9B
:1007F00024BF203A04352E680F279740BE4309FADC
:1008000002F232432A60CA79D2067FF584AF41F200
:100810001803C4F202031A684FEA9A0642F0010272
:100820001A601A6840F6000302F001020192019A70
:10083000AEF57E7252F826B0C4F2010398420FD092
:1008400040F60043C4F2010398423FF427AF41F25F
:100850000003C4F20103009D984208BF02251EE771
:1008600000251CE702B0BDE8F08F0000002A08BF99
:10087000090401617047000040F28C40C2F20000A0
:100880000068704740F2000040F28C41C2F2000064
:10089000C2F2000140680A68104408607047000016
:1008A00080B542F20000C4F20200016841F010017C
:1008B0000160032000F08AF8002000F005F800F045
:1008C00027F8002080BD000070B540F20006C2F29B
:1008D000000640F208017268C2F200014FF47A7318
:1008E0000968B3FBF2F20446B1FBF2F1084600F0EE
:1008F00037FB0F2C4FF0010508D838B94FF0FF3007
:1009000021460022002500F035F83460284670BDED
:1009100082B041F21800C4F202000168022241F0E4
:1009200001010160016801F0010101910199416833
:1009300041F080514160406800F080500090009884
:100940000420C4F20100016862F31A61016002B080
:1009500070470000002848BF704700F01F010122C7
:1009600002FA01F14EF200124009CEF2000242F802
:100970002010704710B54EF60C5CCEF2000CDCF87F
:100980000030C3F3022E8EF00704042C28BF042489
:10099000BEF103034FF0FF3E0EFA04F438BF00230C
:1009A000A14399400EFA03F39A4300F00F03043B6E
:1009B0001143634409010C3300F16042B0F1FF3F81
:1009C000C8BF02F56443197010BD00004EF60C510B
:1009D000CEF200010A684FF6FF031A4060F30A22C4
:1009E00042F0806040F0FD70086070472DE9F043F0
:1009F00081B0002800F0858042F20008C4F20208AD
:100A00000446D8F800000D4600F0070088420CD2DA
:100A1000D8F8000020F007002843C8F80000D8F8F4
:100A2000000000F00700A8426BD1206841F20409E1
:100A30008107C4F2020917D5410705D5D9F800107E
:100A400041F4E061C9F80010010705D5D9F800109C
:100A500041F46051C9F80010D9F80010A26821F0E3
:100A6000F0011143C9F80010C00741D1D8F80000C7
:100A700000F00700A8420CD9D8F8000020F00700C9
:100A80002843C8F80000D8F8000000F00700A8428A
:100A900037D12068410707D5D9F80010E26821F462
:100AA000E0611143C9F80010000708D5D9F800002B
:100AB000216920F4605040EAC100C9F80000D9F86B
:100AC000002002F00C00082841F20020C0F27A0059
:100AD00050D145F2F043C2F38341C0F60003595CA4
:100AE000D2033BD440F60010C0F23D00484341E041
:100AF000606802280AD001282AD159F8041C890309
:100B000008D4012001B0BDE8F08300BF59F8041CEF
:100B10008901F6D5D9F8001021F003010843C9F87E
:100B20000000FFF7A9FE064641F28837D9F8000019
:100B3000616800F00C00B0EB810F97D0FFF79CFECE
:100B4000801BB842F2D9032001B0BDE8F08300BF9A
:100B500059F8041C8907D4D5DCE700BFD9F8002078
:100B600044F63E53C2F34042C0F600039A5C484349
:100B7000B0FBF2F0D9F8001044F65452C1F303115F
:100B8000C0F60002515C40F2080220FA01F140F286
:100B90000000C2F200000068C2F200021160FFF71C
:100BA00093FE002001B0BDE8F08300002DE9F04184
:100BB00082B0002868D00446007841F20006C007E1
:100BC000C4F2020625D0706800F00C0004281BD087
:100BD000706800F00C00082802D17068C00313D4BC
:100BE0006068002800F06881B0F5A02F00F07C81DB
:100BF000B0F5803F00F07C81306820F480303060B8
:100C0000306820F4802076E13068800301D5606888
:100C1000D0B32078800718D5706810F00C0F07D07B
:100C2000706800F00C0008286ED17068C0036BD4A7
:100C30003068800702D52069012825D130686169B4
:100C400020F0F80040EAC1003060207800071FD48F
:100C50002078400732D4E56995B1706800F00C0047
:100C6000082840F08F80012D0ED07068216A00F4B2
:100C700080328A4208D1616A00F47010884203D140
:100C8000002002B0BDE8F081012002B0BDE8F08193
:100C9000A069002862D00020C4F242200121C0F8DF
:100CA0008014FFF7E9FD0546706A800700F18C802B
:100CB000FFF7E2FD401B0228F6D92AE1F06910F0A7
:100CC000805808D1F06940F08050F061F06900F080
:100CD00080500090009847F20007C4F2000738687F
:100CE000C00529D4386840F480703860FFF7C4FD2F
:100CF000054600BF3868C0051ED4FFF7BDFD401B88
:100D00006428F7D905E100BF2069002840F20000FF
:100D1000C4F2422000F0828001210160FFF7ACFDA7
:100D2000054600BF306880073FF588AFFFF7A4FD98
:100D3000401B0228F6D9ECE0E068002800F0808033
:100D4000052800F09780012800F09880306A20F094
:100D500001003062306A20F0040092E00020C4F20A
:100D600042200021C0F88014FFF786FD054600BF31
:100D7000706A80077FF56CAFFFF77EFD401B02288D
:100D8000F6D9C6E00027C4F2422700203866FFF7F4
:100D900073FD022D05460BD13068800140F1BE8005
:100DA000FFF76AFD401B02284FF00300F4D968E703
:100DB000306880017FF564AFFFF75EFD401B0228BD
:100DC0004FF00300F4D95CE740F20800C2F20000E3
:100DD000006844F6D351C1F26201A0FB0101480A48
:100DE000019000BF00BF0198411E002801913FF40F
:100DF0002FAF00BF0198411E002801913FF428AF9A
:100E000000BF0198411E002801913FF421AF00BFAF
:100E10000198411E00280191E4D119E700210160E9
:100E2000FFF72AFD054600BF306880077FF50DAF4C
:100E3000FFF722FD401B02284FF00300F4D920E702
:100E4000306A20F001003062306A20F00400306225
:100E5000FFF712FD054641F2883700BF306A800770
:100E600020D5FFF709FD401BB8424FF00300F5D92C
:100E700007E700BF306A40F004003062306A40F09B
:100E800001003062FFF7F8FC054641F2883700BFE9
:100E9000306A800706D4FFF7EFFC401BB842F7D951
:100EA00037E000BFB8F1000F7FF4D5AEF06920F055
:100EB0008050F061CFE600BF306820F480303060B1
:100EC000306820F480203060FFF7D6FC054600BF74
:100ED000306880037FF59DAEFFF7CEFC401B642891
:100EE0004FF00300F4D9CCE6306840F48020306045
:100EF000306840F480303060FFF7BEFC054600BF2C
:100F0000306880033FF585AEFFF7B6FC401B6428D0
:100F1000F6D9032002B0BDE8F08100BF206AB0F529
:100F2000803F05D17168A26821F4003111437160DE
:100F30007168626A21F474111043084370600120E3
:100F40003866FFF799FC0446306880013FF598AE9B
:100F5000FFF792FC001B02284FF00300F4D990E643
:100F6000411E0020B0EB116F1CBF012070474EF2F4
:100F70001002CEF2000251604EF62351CEF2000173
:100F8000F0230B70072190601160704770470000DC
:100F900070470000B0B5C26B012A04BF0220B0BD8B
:100FA00001F108053CCDD1E900CE23F47C5322F4B5
:100FB00070521A432EF4F0431A432CF4E0431A43C0
:100FC00024F4C0431A432A43C96922F480420368C7
:100FD000114359640021C1630846B0BD10B5C26B0E
:100FE000012A4FF0020230D002640268D2F804E015
:100FF000D2F808C00C682EF07003234340F2FF744F
:10100000C4F20004A24253600ADCB2F1804F13D054
:1010100040F20043C4F200039A420DD011E000BF39
:1010200042F60043C4F201039A4205D040F60003A1
:10103000C4F200039A4204D149682CF0800319439A
:101040009160012100220164C263104610BD0000BE
:10105000002804BF0120704710B50446006C20B979
:101060000020E063204600F05BF802202064206846
:1010700040F2FF730268C4F2000342F6004C98424B
:10108000C4F2010C14DCB0F1804F19D040F20041E1
:10109000C4F20001884213D0984217DCB0F1804FAF
:1010A0001CD040F20041C4F20001884216D019E081
:1010B000604505D040F60001C4F200018842EBD142
:1010C000A16822F070020A439842E7DD604505D02E
:1010D00040F60001C4F20001884203D1216922F4E4
:1010E00040720A43A36922F08001D4F804E0E26868
:1010F000194360450160C262C0F828E002D161690D
:10110000CCF8301001214161002061666164A16466
:10111000E16421656165A165E1652166216410BD19
:1011200080B582B0006842F60041C4F201018842F5
:101130001CBF02B080BD41F21800C4F20200016879
:10114000002241F4006101600068002100F40060A9
:10115000019001981B20FFF70DFC1B2002B0BDE899
:101160008040FFF7F7BB000080B5C26B012A4FF04B
:10117000020200F0BC800264D0F800C04FF6777223
:10118000DCF8083023EA0202CCF808200B683F2B79
:101190001CDD5F2B20DD602B50D0B3F5005F6DD0E0
:1011A000702B40F0A080D1E901E3C968DCF8082089
:1011B00043EA0E0322F47F4243EA01211143CCF8B3
:1011C0000810DCF8081041F077018AE01F2B29DCB9
:1011D00063B3102B2AD086E0402B63D0502B40F015
:1011E0008280D1F804E0C968DCF82030DCF82020E7
:1011F00022F00102CCF82020DCF8182022F0F002C6
:1012000042EA011123F00A0242EA0E02CCF8181059
:10121000CCF82020DCF8081041F0570121F0200123
:101220005FE000BF202B01D0302B5CD1DCF8081030
:1012300021F07001194341F0070152E0D1F804E0B8
:10124000C968DCF8203023F01003CCF82030DCF83B
:101250001830DCF8202023F4704322F0A00243EA87
:10126000013142EA0E12CCF81810CCF82020DCF83C
:10127000081041F0670121F0100132E0D1E901E3EB
:10128000C968DCF8082043EA0E0322F47F4243EAEF
:1012900001211143CCF80810DCF8081041F480411A
:1012A0001FE000BFD1F804E0C968DCF82030DCF8AA
:1012B000202022F00102CCF82020DCF8182022F0B7
:1012C000F00242EA011123F00A0242EA0E02CCF8CF
:1012D0001810CCF82020DCF8081041F0470121F06C
:1012E0003001CCF80810012100220164C2631046CD
:1012F00080BD00007047000010B501680446086911
:10130000800744BFC8685FEA807039D40869400725
:1013100044BFC8685FEA40703ED40869000744BF14
:10132000C8685FEA007045D40869C00644BFC86851
:101330005FEAC0604AD40869C0071CBFC8685FEA9A
:10134000C07051D10869000644BFC8685FEA0060F8
:1013500052D40869400644BFC8685FEA406053D46D
:101360000869800646BFC8685FEA806010BD6FF0FC
:10137000200220460A61BDE81040FFF709BE00BF09
:101380006FF0020008610120E0618869800743D0A6
:101390002046FFF7AFFF45E06FF004000861022030
:1013A000E061886910F4407F40D02046FFF7A2FF3B
:1013B00042E000BF6FF0080008610420E061C869E6
:1013C00080073DD02046FFF795FF3FE06FF010000B
:1013D00008610820E061C86910F4407F3AD02046D7
:1013E000FFF788FF3CE000BF6FF001000861204676
:1013F00000F050FC2168A5E76FF0800008612046EE
:10140000FFF7C4FD2168A4E76FF0400008612046A3
:1014100000F042FC2168A3E7204600F0F3F82046E4
:1014200000F04EFB21680020E0616FE7204600F0ED
:10143000E9F8204600F044FB21680020E0616CE7F9
:10144000204600F0DFF8204600F03AFB216800203B
:10145000E06169E7204600F0D5F8204600F030FB57
:1014600021680020E06166E72DE9F041C36B012BA4
:1014700004BF0220BDE8F0814FEAB202032A2ED851
:10148000DFE802F002326296026842F60045136A13
:10149000C4F2010523F001031362146A5368D2F801
:1014A00018C0AA428D68D1F800E024F0020444EA92
:1014B00005040BD1CD68D1E9056723F4407324F00E
:1014C0000C0425F0040533432C433B432CF07307F5
:1014D00047EA0E075360976149685163146200211F
:1014E000C1630846BDE8F081026842F60045136A10
:1014F000C4F2010523F010031362146A5368D2F892
:1015000018C0AA428D68D1F800E024F0200444EA13
:1015100005140FD1CD68D1E905876FF0400623F49B
:10152000406324F0C00406EA051543EA88032C430F
:1015300043EA87032CF4E64747EA0E275360976196
:10154000496891632EE000BF026842F60045136AC5
:10155000C4F2010523F480731362146A5368D2F84D
:101560001CC0AA428D68D1F800E024F4007444EA5B
:1015700005240FD1CD68D1E905872D0240F2FF4641
:1015800023F4405324F44064B54343EA08132C4346
:1015900043EA07132CF0730747EA0E075360D7613D
:1015A0004968D16314620021C1630846BDE8F08137
:1015B000026842F60046136AC4F2010623F480531F
:1015C0001362136A5468D2F81CE00D68D1F808C0A1
:1015D000B24204D14E6924F4804444EA86142EF4C5
:1015E000E64747EA05275460D76123F4005349686A
:1015F00043EA0C33116413620021C1630846BDE85D
:10160000F081000070470000002804BF01207047EF
:1016100010B50446006C20B90020E063204600F0BD
:101620005BF802202064206840F2FF730268C4F275
:10163000000342F6004C9842C4F2010C14DCB0F1F5
:10164000804F19D040F20041C4F20001884213D00B
:10165000984217DCB0F1804F1CD040F20041C4F238
:101660000001884216D019E0604505D040F600011F
:10167000C4F200018842EBD1A16822F070020A4353
:101680009842E7DD604505D040F60001C4F2000154
:10169000884203D1216922F440720A43A36922F0EF
:1016A0008001D4F804E0E268194360450160C26239
:1016B000C0F828E002D16169CCF830100121416105
:1016C000002061666164A164E16421656165A165D2
:1016D000E1652166216410BD7047000041B1082911
:1016E0000ED0042914BF00F1500200F1480209E0B5
:1016F000426C012A1CBF0120704700F1440211E036
:1017000000F14C021268012A1CBF01207047082911
:1017100006D0042914BF00F1500200F1480201E094
:1017200000F14C024FEAB1034FF0020C032BC2F858
:1017300000C009D8DFE803F0020A10160068C2688A
:1017400042F0020212E000BF006810E00068C268C8
:1017500042F004020AE000BF0068C26842F00802DA
:1017600004E000BF0068C26842F01002C26001F0ED
:101770001F010122036A8A4023EA02010162036A0F
:1017800042F64441C4F201011A43A1F144039842D4
:1017900002620FD040F2FF71C4F20001884213DCF4
:1017A000B0F1804F1CD040F20041C4F200018842E9
:1017B00016D01CE00A6842F400420A6040F2FF7151
:1017C000C4F200018842EBDD42F60041C4F201019F
:1017D000884205D040F60001C4F20001884206D1DB
:1017E000816801F00701062904BF002070470168E5
:1017F00041F0010101600020704700002DE9F04335
:10180000C36B012B04BF0220BDE8F0834FEAB20294
:10181000032A00F2E680DFE802F0033B77B100BF65
:10182000036842F600461A6AC4F2010622F0010279
:101830001A621D6A1A465C6852F818CFB3428E6865
:10184000D1F800E025F0020545EA06050CD1CE6886
:10185000D1E9057824F4407425F00C0526F004063F
:101860003C43354344EA08042CF0730747EA0E076B
:101870005C609F614F6809695F631D629F6947F003
:1018800008079F619F6927F004079F61A6E000BFDA
:10189000036842F600461A6AC4F2010622F01002FA
:1018A0001A621D6A1A46D3F804C052F8184FB342A0
:1018B0008E68D1F800E025F0200545EA06150FD125
:1018C000CE68D1E905986FF0400707EA06162CF4B8
:1018D000406725F0C00547EA8907354347EA880C89
:1018E00024F4E64444EA0E27C3F804C09F614F681D
:1018F00009699F631D629F6947F400679F619F6943
:1019000027F480679F6168E0036842F600461A6A20
:10191000C4F2010622F480721A621D6A1A46D3F8D4
:1019200004C052F81CEFB3428E680C6825F40075B1
:1019300045EA06250FD1CE68D1E90598360240F276
:10194000FF47BE432CF4405725F4406547EA09178A
:10195000354347EA081C2EF073072743C3F804C039
:10196000DF614F680969DF631D62DF6947F00807BF
:10197000DF61DF6927F00407DF612FE0036842F6CB
:1019800000471A6AC4F2010722F480521A621A460A
:10199000D3F820C05D6852F81C4FD1F800E08E6883
:1019A000BB4204D14F6925F4804545EA87152CF4E4
:1019B000005747EA063724F4E64646EA0E265D60FD
:1019C000DE614E6809691E641F62DF6947F40067C3
:1019D000DF61DF6927F48067DF610902136819435B
:1019E00011600021C1630846BDE8F083002804BFF0
:1019F0000120704710B50446006C20B90020E06358
:101A0000204600F05BF802202064206840F2FF735B
:101A10000268C4F2000342F6004C9842C4F2010C82
:101A200014DCB0F1804F19D040F20041C4F2000143
:101A3000884213D0984217DCB0F1804F1CD040F29E
:101A40000041C4F20001884216D019E0604505D07B
:101A500040F60001C4F200018842EBD1A16822F0F7
:101A600070020A439842E7DD604505D040F6000168
:101A7000C4F20001884203D1216922F440720A4372
:101A8000A36922F08001D4F804E0E26819436045BC
:101A90000160C262C0F828E002D16169CCF8301060
:101AA00001214161002061666164A164E1642165F6
:101AB0006165A165E1652166216410BD7047000084
:101AC00010B540F2A800C2F20000D0E9001201F106
:101AD00032033232B3F57A7F0360426005D3826805
:101AE000A1F2B6310160511C816040F2D404C2F20F
:101AF0000004204601F0A0F92046BDE8104001F0A6
:101B00004BB9000041B108290ED0042914BF00F1DF
:101B1000500200F1480209E0426C012A1CBF01207A
:101B2000704700F1440211E000F14C021268012AF2
:101B30001CBF01207047082906D0042914BF00F1FA
:101B4000500200F1480201E000F14C020223136050
:101B5000006801F01F010122036A8A4023EA0201A2
:101B60000162036A42F64441C4F201011A43A1F141
:101B70004403984202620FD040F2FF71C4F20001A8
:101B8000884213DCB0F1804F1CD040F20041C4F217
:101B90000001884216D01CE00A6842F400420A6044
:101BA00040F2FF71C4F200018842EBDD42F60041D1
:101BB000C4F20101884205D040F60001C4F20001E0
:101BC000884206D1816801F00701062904BF002080
:101BD0007047016841F0010101600020704700007A
:101BE00080B5026801F01F0C012303FA0CFE136A92
:101BF00042F6444C23EA0E03C4F2010C1362D2F8FD
:101C000020E0ACF144039A42C2F820E013D15CF822
:101C100024EC41F211131EEA030F0CD1D2F820E09C
:101C200040F244431EEA030F05D1DCF8003023F4F0
:101C30000043CCF80030D2F820C041F211131CEA66
:101C4000030F06D1D2F820C040F244431CEA030F30
:101C500014D0082918D004290AD0002914BF00F193
:101C6000500100F14401012200200A6080BD00BF44
:101C700000F14801012200200A6080BD136823F0B2
:101C8000010313600829E6D100F14C010122002074
:101C90000A6080BD7047000070470000FEE700004A
:101CA00070B584B041F21800C4F20200016841F23C
:101CB000000441F0100101600168C4F2010401F068
:101CC0001001009100990168002241F0200101609B
:101CD00001684FF4005501F020010091009901685E
:101CE000002641F008010160016801F0080100913F
:101CF0000099016841F00401016000684FF400514F
:101D000000F00400009000982046FEF7AFFD01208F
:101D1000CDE9010603200390694620460095FEF7B1
:101D20009DFC04B070BD000070B59CB042F600454B
:101D300040F22440C4F201050021C2F200004FF439
:101D400061621691CDE914111191CDE90F11CDE920
:101D50000D11CDE90B11CDE90911CDE90711CDE93F
:101D60000511CDE90311CDE90111C0E90051C0E928
:101D70000212C0E904118161FFF76AF9002818BF57
:101D8000FEF766FC4FF48050139040F22440C2F2FC
:101D9000000013A9FFF7E8F9002818BFFEF758FC68
:101DA00040F22440C2F20000FFF720FE002818BFD6
:101DB000FEF74EFC40F22440C2F20000FFF724FC84
:101DC000002818BFFEF744FC40F224400024C2F271
:101DD000000010A9CDE91044FFF700F9002818BF52
:101DE000FEF736FC6020CDE9090440F22440C2F23F
:101DF000000009A90022CDE90B44CDE90D440F9460
:101E0000FFF7FCFC002818BFFEF722FC40F224403C
:101E1000C2F2000009A90422FFF7F0FC002818BF55
:101E2000FEF716FC40F224400024C2F2000009A98B
:101E300008220994FFF718FB002818BFFEF708FCDA
:101E40000594CDE90344CDE90144089440F22444CB
:101E50004FF40050C2F20004069001A92046FFF79B
:101E600099F8002818BFFEF7F3FB20680021A8426C
:101E70001A9101D01CB070BD41F21800C4F20200EA
:101E8000016818AC41F0080101600168022601F008
:101E9000080117911799016841F004010160006879
:101EA000214600F00400179017984FF4C040189096
:101EB000A5F5005019961B96FEF7D0FB4FF4E06095
:101EC000CDE91806A5F5105021461B96FEF7C6FB76
:101ED0001CB070BDFEE70000FEE700007047000088
:101EE00070470000FEF7CEBC7047000040F224406F
:101EF000C2F20000FFF700BAFEE7000010B540F2A2
:101F0000CC04C2F200042078BFF35F8FC00707D073
:101F100040F25410C2F200000021C4E9020110BDD9
:101F200040F2CC00C2F2000002F02EFC0028EFD0FC
:101F300040F25410C2F200004FF48471FEF7B2F97F
:101F400040F2CC00C2F2000002F04CFCE0E70000DE
:101F50002DE9F04140F29435C2F2000562A1284615
:101F600001220023002701F059F945F2C830C0F6DC
:101F7000000000F1080129602830294641F8780F57
:101F800045F2E040C0F60000083005F17C0240F266
:101F9000000883C242F23560C0F60008C0F60000B7
:101FA00029464246C5E92277FEF777F940F25C26DA
:101FB000C2F2000640F210034EA2C2F20003304605
:101FC000294600F077FE45F28830C0F6000000F1A7
:101FD000080124303246C6E91807304642F8807FAF
:101FE000334640F8787F43F8842F324631603146DB
:101FF00042F88C0F06F1760041F87C7FC6E9242078
:1020000042F25930C6F89810C0F6000031464246F8
:10201000B766C6F88830FEF740F940F2F824C2F2FD
:10202000000440F21C0334A2C2F2000320462946F9
:1020300000F040FE40F8607F214641F8680FC4E997
:102040001B1745F2B431C0F6000108312346216068
:10205000214643F8807F2646204641F8787F46F89F
:10206000843F234640F8747F224643F88C1F42F891
:102070007C7FC4E9243042F61150C4F89820C0F6A1
:102080000000214642466766C4F88860FEF705F9FD
:1020900045F2184140F2900442F27510C0F600017A
:1020A000C2F20004C0F6000001F10805C4E90050C6
:1020B0002046102100F0F6FE42F2A110C0F600000A
:1020C000E060204640F8085F112100F0EBFE42F28C
:1020D000C112C0F6000244F8105F20460021626081
:1020E000BDE8F04100F0FCBF686172647761726521
:1020F00000000000646300006463760045F218414C
:1021000040F23C10C0F60001C2F2000042F6351267
:102110000831C0F6000201601121426000F0C2BE29
:1021200040F24411C2F200010023B220C1E90003D1
:1021300043F60D3040F20002C0F60000C0F6000287
:102140008B60FEF7AAB802F033B980B5AFF3008018
:10215000BDE8804002F0F2B980B5AFF30080BDE881
:10216000804002F0EBB980B5AFF30080BDE880405D
:1021700002F0E4B940F2F820C2F2000040F25C2222
:1021800000F19401C2F200029830C2F8900040F2CF
:102190003410C2F88810C2F2000003214160704779
:1021A00040F2F8200021C2F20000C4F24011C0F851
:1021B000801040F25C20C2F20000012141667047AD
:1021C000B0B540F2F825C2F20005D5F8940046F209
:1021D00066610468C4F23E11204602F077FB28B124
:1021E0000020CCF24010C5F88000B0BD46F2666118
:1021F000CCF23E11204602F070FB002818BFB0BDA3
:102200000020C4F24010C5F88000B0BD10B542F601
:10221000344040F22444C4F201000021C2F2000420
:102220000160416020460021FFF76CFC204604213C
:10223000BDE81040FFF766BC10B542F6344040F2EE
:102240002444C4F201000021C2F200040160416094
:1022500020460021FFF7C4FC20460421BDE81040C1
:10226000FFF7BEBC42F634400129C4F2010003DB93
:1022700001600021416070470022494202604160D4
:102280007047000080B590F87410002918BF00F066
:1022900003F8012080BD0000B0B5856D04462DB166
:1022A0006868FFF7F9FFED68002DF9D120684168F3
:1022B0002046BDE8B0400847B0B5C56C044635B10E
:1022C0006868016849688847ED68002DF8D1A46DF9
:1022D000002C08BFB0BD00BF6068FFF7EDFFE468E9
:1022E000002CF9D1B0BD0000B0B50D46B1F9041015
:1022F000B5F90620914213DA0446A86840F20011AD
:10230000C3F6000102F0F0FA50B9D5E90101E06628
:10231000A06E216700284FF0010008BFA066B0BD85
:102320000020B0BD10B50446D0F88800016804F163
:10233000600000F05DFAD4F890100968096800297F
:1023400018BF0846E06710BD80B500F005F8BDE88D
:10235000804002F0F3B8000010B545F29041C0F69D
:1023600000010831024642F8481F916831B3D1E9B3
:1023700000E3D1F808C0AEF1010E6345C1F800E0FA
:102380000AD093420CD0944510D0D0E91512D160F8
:10239000416D0A610EE000BF0022C1E9012209E09F
:1023A000426D4A600021116104E000BF826D8A60C5
:1023B0000021D1600021C0E91411816545F2FC3192
:1023C000C0F600010831016045F28041C0F600010D
:1023D000C26A01F1080C034643F824CF12B3D2E9D4
:1023E0000041D2F808E0013C7145146008D09942E0
:1023F0000AD09E450ED0D0E90C12D160016B06E0E8
:102400000021C2E9011109E0016B516000220A615B
:1024100004E000BF416B91600022CA600021C0E966
:102420000B114163024642F804CF9168002908BFAE
:1024300010BDD1E90043D1F808C0013C63450C60F0
:102440000ED0934214D094451CD0D0E90412D16030
:1024500001690A610021C0E90311416110BD00BF9B
:102460000022C1E901220021C0E90311416110BD30
:1024700002694A60002111610021C0E90311416134
:1024800010BD00BF42698A600021D1600021C0E90F
:102490000311416110BD000070B50D460446D1E93D
:1024A00001012E692067304602F01EFA60B9E96822
:1024B000304602F012FA38B9D5E90201C4E9180130
:1024C00028696067012070BD002070BD2DE9F047CC
:1024D0000446D0F88800E16E0068D1F800A00568D5
:1024E000DAF804802846414602F0F7F9474648B931
:1024F000DAF800602846314602F0E8F92F46002855
:1025000008BF3746666F3846314602F0A3FB00210C
:10251000054602F0E9F958B9D4F8709028464946C2
:1025200002F0E9F9B0B94846314602F05FF910E02F
:102530002846002102F0D1F970B9D4F8709085F0E6
:102540000041484602F0C2F920B93046494602F03F
:1025500081FB07463E4667673046414602F0BDF9BB
:1025600050B9DAF80010304602F0BEF900280CBF6E
:102570000020022001E000BF0320D4F89010096879
:102580000968002918BF0846E067BDE8F087000029
:1025900010B582B0044601A801F070FAD4F88400A6
:1025A00040B3D0E900328168013B8A4203600DD01C
:1025B00004F17C039A420DD0994211D0D4E9220152
:1025C000C860D4F8880001610FE000BF0021C0E9B5
:1025D00001110AE0D4F8881041600020086104E08D
:1025E000D4F88C1081600020C8600020C4E921006C
:1025F000C4F88C0001A801F069FA02B010BD000017
:10260000B0B582B001AD0446284601F037FA04F1B6
:102610007C00122100F0E4FC284601F057FA02B0D9
:10262000B0BD000080B500F005F8BDE8804001F0C5
:1026300085BF000010B545F2C831C0F6000101F1B8
:1026400008022831816745F2A041C0F6000101F17E
:102650000803D0F884100260024642F87C3F49B378
:10266000D1E900E3D1F808C0AEF1010E6345C1F82D
:1026700000E00BD093420DD0944511D0D0E9221246
:10268000D160D0F888100A610FE000BF0022C1E9D4
:1026900001220AE0D0F888204A600021116104E09C
:1026A000D0F88C208A600021D1600021C0E921117E
:1026B000C0F88C1045F27041C0F6000108310246A6
:1026C00042F8601F916829B3D1E900E3D1F808C04E
:1026D000AEF1010E6345C1F800E009D093420BD082
:1026E00094450FD0D0E91B12D160C16E0A610DE094
:1026F0000022C1E9012209E0C26E4A600021116195
:1027000004E000BF026F8A600021D1600021C0E9AF
:102710001A11016745F2FC31C0F600010831016071
:1027200045F28041C0F60001C26A01F1080C03467F
:1027300043F824CF12B3D2E90041D2F808E0013CBB
:102740007145146008D099420AD09E450ED0D0E958
:102750000C12D160016B06E00021C2E9011109E011
:10276000016B516000220A6104E000BF416B91607F
:102770000022CA600021C0E90B114163024642F801
:1027800004CF9168002908BF10BDD1E90043D1F8FA
:1027900008C0013C63450C600ED0934214D09445B0
:1027A0001CD0D0E90412D16001690A610021C0E99E
:1027B0000311416110BD00BF0022C1E901220021C7
:1027C000C0E90311416110BD02694A600021116135
:1027D0000021C0E90311416110BD00BF42698A6058
:1027E0000021D1600021C0E90311416110BD00004A
:1027F0002DE9F04381B00446806804281CD80D46BA
:10280000DFE800F062040948600000BF606801284A
:1028100012D10220A0602968E28A206904F10C0824
:10282000A28202F04BF90021074602F05DF848B998
:1028300038464FF07C510DE00025284601B0BDE838
:10284000F08300BF3846002102F047F828B9384627
:102850004FF03F4101F0CAFF0746384602F092F8B8
:10286000B4F90E10E08281420CDDB8F90090064602
:10287000484602F0A3F80146384602F027F818B996
:102880001FFA89F10E46E18231B24046FFF7BEFCE5
:102890000320A0606068012810D12968E28A2069BD
:1028A00004F10C08A28202F009F90021054602F0A9
:1028B0001BF878B928464FF07C5113E00420A06043
:1028C000FFF7BAFC0120A0600125284601B0BDE851
:1028D000F08300BF2846002101F0FFFF28B92846F9
:1028E0004FF03F4101F082FF0546284602F04AF8CA
:1028F000B4F90E10E08281420EDDB8F9006007469F
:10290000304602F05BF80146284601F0DFFF28B1AF
:102910000025394605E000BF032501E0B1B20225DC
:10292000E18209B24046FFF79DFC284601B0BDE8B0
:10293000F083000040F22440C2F200000821FEF7BC
:10294000CDBE000001207047B0B540F2CC05C2F208
:1029500000052879BFF35F8FC00703D005F11C0085
:10296000B0BD00BF2C1D204601F00EFF0028F5D0A1
:1029700045F2FC30C0F6000045F2C042083029465E
:10298000C0F6000241F81C0F0832C1E9012145F2EE
:102990006042C0F6000245F2AD5300200832C0F696
:1029A0000003C1E90300C1E90500C1E90700C1E96D
:1029B0000921C1E90B00C1E90D00C1E90F304864EC
:1029C00000F0D6FF50B945F2695045F27E51C0F68D
:1029D0000000C0F600018D2200F0C2FF42F6D530A3
:1029E00040F2000205F11C01C0F60000C0F6000232
:1029F000FDF753FC204601F0F5FE05F11C00B0BDCB
:102A0000B0B582B0C5690446022060643DB100BF24
:102A10006868FFF7F5FF68B1ED68002DF8D1206810
:102A200001682046884748B101256564284602B000
:102A3000B0BD00BF45F27E519D2002E045F27E51BF
:102A40009F20C0F6000145F24D5245F26E53CDE98C
:102A50000010C0F60002C0F600036FF00100002174
:102A6000002500F07FFC284602B0B0BD2DE9F04102
:102A7000044645F2FC30C0F600000830206045F204
:102A8000C040C0F600000830274647F8040F45F262
:102A90006040C0F600000830254640F2CC08002611
:102AA00045F8240FC2F20008C4E90246C4E90466EE
:102AB000C4E906662662C4E90A46C4E90C66C4E9AC
:102AC0000E613AB1916B42A02264666401F05AF83B
:102AD000064605E0FFF738FF08F11C00C4E91006C0
:102AE000E06B314601F04EF8E16A79B1D1E900635B
:102AF0008A68013E93420E600AD0AB420CD0AA42D3
:102B000010D0D4E90C23DA60226B08E0A06315E052
:102B10000022C1E9012209E0226B00234A6013610F
:102B200004E000BF626B00238A60D3600022C4E926
:102B30000D202846C4E90B2200F03AFC08F11001F0
:102B4000284600F035FC50B945F2695045F27E51F7
:102B5000C0F60000C0F60001C42200F001FFE268E8
:102B6000206C00F118010AB3D2E900569368013DC8
:102B70009E4215600AD0BE420CD0BB4210D0D4E9B0
:102B80000423DA60226913610EE000BF0023C2E96A
:102B9000013309E02369536000221A6104E000BF99
:102BA000636993600022DA6000222261C2691AB16F
:102BB000026A0762D76003E00022C0E9077722615A
:102BC00062610868E160013008602046BDE8F0817C
:102BD0002E00000010B545F2FC31C0F600010831AE
:102BE000016045F28041C0F60001C26A01F1080CA3
:102BF000034643F824CF1AB3D2E90041D2F808E0E3
:102C0000013C7145146009D099420BD09E450FD00C
:102C1000D0E90C12D160016B07E000BF0021C2E9CE
:102C2000011109E0016B516000220A6104E000BF5C
:102C3000416B91600022CA600021C0E90B11416321
:102C4000024642F804CF9168002908BF10BDD1E9BF
:102C50000043D1F808C0013C63450C600ED093429C
:102C600014D094451CD0D0E90412D16001690A61E6
:102C70000021C0E90311416110BD00BF0022C1E97C
:102C800001220021C0E90311416110BD02694A60BF
:102C9000002111610021C0E90311416110BD00BF95
:102CA00042698A600021D1600021C0E903114161BD
:102CB00010BD0000B0B50C46114622461D46FFF778
:102CC000D5FE45F20841C0F600010831016045F229
:102CD000D041C064C565C0F60001E26C083103460E
:102CE00043F8481F0021002A04F14802416581652C
:102CF00004D0216D2365CB6003E000BFC4E913332A
:102D0000416581651168026501311160B0BD000047
:102D100080B545F20841C0F600010831016045F276
:102D20009041C0F6000101F10803016D024642F82E
:102D3000483F29B3D1E900E3D1F808C0AEF1010E54
:102D40006345C1F800E009D093420BD094450FD001
:102D5000D0E91512D160416D0A610DE00022C1E990
:102D6000012209E0426D4A600021116104E000BFC8
:102D7000826D8A600021D1600021C0E91411816553
:102D8000BDE88040FFF726BF0268C16D926810471A
:102D90000268C16D9268104770B582B040F2341479
:102DA000C2F2000461680546022906D1206820B9F4
:102DB000204600F0C3FA0120206001A800F052FE76
:102DC0002868866A46B100BF70680168096888474C
:102DD000F668002EF8D12868696801EB410200EB23
:102DE0008200066C46B100BF7068016809688847B8
:102DF000F668002EF8D16968481CB0F1100218BFBF
:102E00000246D4E900016A60022908BF012809D0FE
:102E1000042908BF012805D001A800F029FE02B04E
:102E200070BD00BF204600F093FA0020206001A88A
:102E300000F01EFE02B070BDB0B582B040F2341496
:102E4000C2F20004D4E900120546042A08BF002992
:102E500003D0032A08BF002904D1204600F06EFAEF
:102E60000120206001A800F0FDFD2868C56935B18A
:102E70006868016809688847ED68002DF8D16068C6
:102E8000032807D12068012804D1204600F060FA09
:102E90000020206001A800F0EBFD02B0B0BD0000F2
:102EA00001F04CBB70B582B00D46064600F060FDE7
:102EB00050B945F2775045F27E51C0F60000C0F699
:102EC0000001752200F04CFD142001F039FB45F2A1
:102ED000E04104460020C0F600010831C4E90200C8
:102EE000206101A8C4E9001600F0C8FD40F2CC0042
:102EF000C2F200000078BFF35F8FC00758D0A5F181
:102F0000100005280ED244F64051C0F6000151F8D9
:102F10002000A168C9B94168D9B381688460CC60D8
:102F20003BE000BF45F23B5045F27E51C0F6000049
:102F3000C0F60001452200F013FD40F25410C2F229
:102F40000000FC30A1680029E5D0D1E900638A685F
:102F5000013E93420E6009D0A3420BD0A2420FD093
:102F6000D4E90312D160E1680A610DE00022C1E9F1
:102F7000012209E0E2684A600021116104E000BF1B
:102F800022698A600021D1600021E1604168002946
:102F9000C3D10021C0E90144E16021610168A06062
:102FA0000131016001A800F091FD02B070BD00BFC9
:102FB00040F2CC00C2F2000001F0E6FB00289ED0F7
:102FC00040F25410C2F200004FF48471FDF76AF928
:102FD00040F2CC00C2F2000001F004FC8FE70000D8
:102FE000B0B582B0044601A80D4600F047FD40F29E
:102FF000CC00C2F200000078BFF35F8FC00757D04B
:10300000A5F1100005280DD244F64051C0F600018C
:1030100051F82000A168C1B94168D1B381688460CA
:10302000CC603AE045F23B5045F27E51C0F60000DC
:10303000C0F60001452200F093FC40F25410C2F2A9
:103040000000FC30A1680029E6D0D1E900538A686D
:10305000013D93420D6009D0A3420BD0A2420FD094
:10306000D4E90312D160E1680A610DE00022C1E9F0
:10307000012209E0E2684A600021116104E000BF1A
:1030800022698A600021D1600021E1604168002945
:10309000C4D10021C0E90144E16021610168A06060
:1030A0000131016001A800F011FD02B0B0BD00BF08
:1030B00040F2CC00C2F2000001F066FB00289FD075
:1030C00040F25410C2F200004FF48471FDF7EAF8A8
:1030D00040F2CC00C2F2000001F084FB90E7000057
:1030E00070B582B00D46064600F042FC50B945F27C
:1030F000775045F27E51C0F60000C0F600017C22F8
:1031000000F02EFC142001F01BFA45F2E0410446C9
:103110000020C0F600010831C4E90200206101A8C6
:10312000C4E9001600F0AAFC40F2CC00C2F2000094
:103130000078BFF35F8FC00758D00F2D10D840F232
:10314000541105EB4500C2F2000101EB80003C3058
:10315000A168C1B94168D1B381688460CC603AE0AC
:1031600045F23B5045F27E51C0F60000C0F600012A
:103170005C2200F0F5FB40F25410C2F20000FC307B
:10318000A1680029E6D0D1E900638A68013E934234
:103190000E6009D0A3420BD0A2420FD0D4E9031293
:1031A000D160E1680A610DE00022C1E9012209E075
:1031B000E2684A600021116104E000BF22698A6070
:1031C0000021D1600021E16041680029C4D10021C3
:1031D000C0E90144E16002682161511C0160A06006
:1031E00001A800F073FC02B070BD00BF40F2CC003B
:1031F000C2F2000001F0C8FA00289ED040F254103C
:10320000C2F200004FF48471FDF74CF840F2CC009C
:10321000C2F2000001F0E6FA8FE70000F0B581B0DD
:1032200016461A461D460446FFF720FC45F2743048
:10323000C0F600000830206045F2B040C0F6000043
:103240000830274647F8600F0020C4E91200C4E99F
:103250001400C4E91600C4E91940C4E91B0084F84D
:103260007460F5B144F61C6144F69C52C0F600014E
:10327000C0F600022846002301F08AF988B1816D6A
:10328000002900F1540103D0C26DC765D76003E087
:103290000022C0E91677E26622670868A16601305D
:1032A000086045F22C40C0F6000000F108012160E2
:1032B00000F128012046A16701B0F0BDFEDE00004C
:1032C00080B545F27431C0F600010831016045F265
:1032D0007041C0F6000101F10803816E024642F818
:1032E000603F29B3D1E900E3D1F808C0AEF1010E87
:1032F0006345C1F800E009D093420BD094450FD04C
:10330000D0E91B12D160C16E0A610DE00022C1E953
:10331000012209E0C26E4A600021116104E000BF91
:10332000026F8A600021D1600021C0E91A11016793
:10333000BDE88040FFF74EBCFEF7BEBF41F2000083
:10334000C4F201004FF400510122FDF78FBA0000D2
:1033500041F20000C4F201004FF400510022FDF7D9
:1033600085BA000081B080B581B040F2B40CC2F2E1
:10337000000CDCF800E00393BEF1000F13D000282E
:1033800008D4DCF8043083420DDBDCF808300B4055
:103390008B4208D10DF10C0EDCF80030114672465C
:1033A000CDF800E0984701B0BDE8804001B070471B
:1033B000B0B50A68002A0FDD4D6845B142692B4659
:1033C0005C6994421AD01BDCDB68002BF8D135B164
:1033D0008A688860D06006E04D68002DF8D1002230
:1033E000C1E90100C26002610A6800F1080C013203
:1033F0000A600120CCF80010B0BD00BF0020B0BDB5
:1034000084465CF808EFBEF1000F23D0DEE90054DB
:10341000DEF80820013D9442CEF8005008D08442E6
:103420000AD082420ED0D0E90325EA60C26807E0E4
:103430000022CEE901220AE0C2680025CEF804206D
:10344000156104E002690025CEF80820D5604D68BA
:103450000022026145B19D420CD01A69D060026120
:103460001861C3600BE000BF0022C1E90100C0E9A0
:10347000032204E000221861C0E903524860086892
:10348000013008600120CCF80010B0BD816800292F
:1034900008BF01F053B891E80C106345A2F1010296
:1034A0000A600BD083420FD0844513D0D0E90312B9
:1034B000D160C1680A6101F041B800BF0022C1E9D2
:1034C000012201F03BB800BFC2684A6000211161CF
:1034D00001F034B802698A600021D16001F02EB891
:1034E0008168002908BF01F029B891E80C106345F4
:1034F000A2F101020A600BD083420FD0844513D0A1
:10350000D0E90312D160C1680A6101F017B800BFA9
:103510000022C1E9012201F011B800BFC2684A606F
:103520000021116101F00AB802698A600021D160AE
:1035300001F004B845F270428168C0F6000208321A
:103540000029026008BF704791E80C106345A2F1A2
:1035500001020A600ED0834214D084451CD0D0E909
:103560000312D160C1680A610021C0E90211016142
:10357000704700BF0022C1E901220021C0E9021109
:1035800001617047C2684A60002111610021C0E9F1
:1035900002110161704700BF02698A600021D16099
:1035A0000021C0E902110161704700008168002913
:1035B00008BF00F0C3BF91E80C106345A2F10102FF
:1035C0000A600BD083420FD0844513D0D0E9031298
:1035D000D160C1680A6100F0B1BF00BF0022C1E93B
:1035E000012200F0ABBF00BFC2684A600021116138
:1035F00000F0A4BF02698A600021D16000F09EBF84
:1036000045F280428168C0F600020832002902605B
:1036100008BF704791E80C106345A2F101020A60EF
:103620000ED0834214D084451CD0D0E90312D1605F
:10363000C1680A610021C0E902110161704700BF41
:103640000022C1E901220021C0E902110161704795
:10365000C2684A60002111610021C0E902110161C4
:10366000704700BF02698A600021D1600021C0E973
:1036700002110161704700008168002908BF00F055
:103680005DBF91E80C106345A2F101020A600BD006
:1036900083420FD0844513D0D0E90312D160C168B2
:1036A0000A6100F04BBF00BF0022C1E9012200F017
:1036B00045BF00BFC2684A600021116100F03EBFF3
:1036C00002698A600021D16000F038BF45F2904263
:1036D0008168C0F6000208320029026008BF704706
:1036E00091E80C106345A2F101020A600ED08342FA
:1036F00014D084451CD0D0E90312D160C1680A619E
:103700000021C0E902110161704700BF0022C1E938
:1037100001220021C0E9021101617047C2684A60BC
:10372000002111610021C0E902110161704700BF51
:1037300002698A600021D1600021C0E902110161A3
:10374000704700008168002908BF00F0F7BE91E8CB
:103750000C106345A2F101020A600BD083420FD026
:10376000844513D0D0E90312D160C1680A6100F02A
:10377000E5BE00BF0022C1E9012200F0DFBE00BFAC
:10378000C2684A600021116100F0D8BE02698A60F7
:103790000021D16000F0D2BE45F2A0428168C0F69F
:1037A000000208320029026008BF704791E80C103F
:1037B0006345A2F101020A600ED0834214D0844511
:1037C0001CD0D0E90312D160C1680A610021C0E9B0
:1037D00002110161704700BF0022C1E901220021EE
:1037E000C0E9021101617047C2684A60002111619D
:1037F0000021C0E902110161704700BF02698A60BF
:103800000021D1600021C0E9021101617047000070
:103810008168002908BF00F091BE91E80C10634553
:10382000A2F101020A600BD083420FD0844513D06D
:10383000D0E90312D160C1680A6100F07FBE00BF09
:103840000022C1E9012200F079BE00BFC2684A60CF
:103850000021116100F072BE02698A600021D1600E
:1038600000F06CBE8168002908BF00F067BE91E8D7
:103870000C106345A2F101020A600BD083420FD005
:10388000844513D0D0E90312D160C1680A6100F009
:1038900055BE00BF0022C1E9012200F04FBE00BFAB
:1038A000C2684A600021116100F048BE02698A6066
:1038B0000021D16000F042BE8168002908BF00F0FD
:1038C0003DBE91E80C106345A2F101020A600BD0E5
:1038D00083420FD0844513D0D0E90312D160C16870
:1038E0000A6100F02BBE00BF0022C1E9012200F0F6
:1038F00025BE00BFC2684A600021116100F01EBEF3
:1039000002698A600021D16000F018BE8168002938
:1039100008BF00F013BE91E80C106345A2F101024C
:103920000A600BD083420FD0844513D0D0E9031234
:10393000D160C1680A6100F001BE00BF0022C1E988
:10394000012200F0FBBD00BFC2684A600021116186
:1039500000F0F4BD02698A600021D16000F0EEBD84
:1039600040F2C003C2F2000307C300F03DB80000FC
:1039700040F20C00C2F2000000680138B0FA80F09A
:103980004009704710B540F20C04C2F200042068F0
:10399000012807D045F2005104A0C0F600014922D9
:1039A000FFF7DEFF0020206010BD00BF66616C6C79
:1039B0000000000010B540F25014EFF3108072B612
:1039C000C2F20004206838B145F2005104A0C0F6EC
:1039D00000013F22FFF7C4FF0120206010BD00BF9F
:1039E0006C6F636B00000000FCF74CFCEFF3108081
:1039F000EFF3108172B67047002818BF704762B6A7
:103A00007047000010B540F25014C2F20004206864
:103A1000012807D045F2005104A0C0F6000143225E
:103A2000FFF79EFF0020206062B610BD756E6C6FC0
:103A3000636B000010B540F20C04C2F20004206871
:103A400038B145F2005104A0C0F600014E22FFF744
:103A500087FF0120206010BD636F6D656261636B3D
:103A60000000000010B50446FFF78CFF204610BD93
:103A700010B50446FFF7DEFF204610BDB0B540F29A
:103A80004415C2F2000529680446B22908D1FFF79F
:103A90006FFF48B1FFF7AAFF55F8082F01460EE067
:103AA000002120462160B0BD284650F8042F0AB1FD
:103AB000002105E0FFF77EFF55F8042F002128467E
:103AC0000132026020462160B0BD000070B540F2B6
:103AD0004416C2F2000631680446B22914D12568A2
:103AE000FFF746FF40B1B0680138B0602846FFF7E5
:103AF00083FF204670BD00BF7068012804DB0138D9
:103B0000706008BFFFF77EFF204670BD6FF0B10107
:103B1000016070477047000010B50446406818B156
:103B2000BDE81040004700BF04A007A11222FFF724
:103B300017FF6068BDE81040004700BF6F706572F6
:103B400061746F72282900002E2E2F2E2E2F2E2EFC
:103B50002F2E2E2F7265666572656E63652F726FEC
:103B6000626F73642D7265665C636F72652F726F2E
:103B7000626F73645F64656C656761742E687070F2
:103B8000000000000378DBB102304AF64F4C00BF62
:103B900089B210F8012C03FB0C118AB189B20378A9
:103BA00002FB0C1163B189B2427803FB0C113AB1EC
:103BB00089B2837802FB0C11002B00F10400E7D1DD
:103BC00088B270477047704770B51546059A0E4623
:103BD00089681C463AB188420AD040684968FCF7B7
:103BE00013FC28B170BD40684968884218BF70BD99
:103BF00031462A462346BDE8704000F072B82DE9F0
:103C0000F0411646069A0C468968984607468AB1DE
:103C10008F4230D07D6849682846FCF7F5FB50B3E9
:103C2000206887420ED041682846FCF7EDFB48B17A
:103C3000BDE8F0817868496888421CD021684968ED
:103C40008842F5D12069B04220D06069B0421DD0D1
:103C5000D4E90910C4F82080013001296661A0620E
:103C600005D1A069022804BF012084F83600042091
:103C7000E062BDE8F0816068B042D9D1E069012816
:103C80001CBFC4F81C80BDE8F081D1E7B8F1010F7A
:103C900018BFBDE8F08101202062BDE8F08180B549
:103CA000D1F808C0D0F804E0DCF80400864518BF5D
:103CB00080BD086950B190420DD0486A0130486219
:103CC00002208861012081F8360009E001200A61A4
:103CD0008B61486280BD8869022804BF8B6180BD0A
:103CE00080BD80B548684FF0010E984281F835E0FC
:103CF00000D080BD0B69DDF808C081F834E02BB13D
:103D000093420FD0486A0130486217E00120BCF1AD
:103D1000010F0A61C1F818C04862EAD1086B012896
:103D20000CD0E6E78A69022A04BFC1F818C06246CF
:103D3000086B012818BF80BD012ADAD1012081F863
:103D4000360080BDF0B58FB0054640684B6898429C
:103D50002DD044F66C531446C0F6000344F6785256
:103D6000C0F60002084619460023002600F010FCA9
:103D7000F0B101AE0746301D3421FCF793FA4FF045
:103D8000FF3004900120019703950D903868226858
:103D9000C569384631460123A84707980138B0FA6B
:103DA00080F04FEA501604BF0598206000E001261D
:103DB00030460FB0F0BD2DE9F04383B0DDE90A9441
:103DC0000E46896898461546074674B18F4204D05E
:103DD00078684968FCF718FB58B931462A464346CB
:103DE00003B0BDE8F043FFF77CBF786849688842BC
:103DF000F3D0B8682A46016843464F693146CDF88A
:103E000000900194B84703B0BDE8F0832DE9F0437A
:103E100083B0DDF828900C46896898461546B9F1BC
:103E2000000F074630D08F4240D07E684968304648
:103E3000FCF7EAFAD0B32068874204D041683046E4
:103E4000FCF7E2FA40BB2069A84238D06069A8427A
:103E500035D0E06AC4F82080042838D00020A0863D
:103E6000B8682A4601682B464F6901210091214616
:103E7000CDF80490B84794F8350030B394F8340086
:103E80000321E16280BB22E07868496888420DD056
:103E9000216849688842D6D0B8682A4601684346F6
:103EA0008F692146CDF80090B8471DE06068A842B0
:103EB0001AD1E069012818BFC4F81C8014E0B8F1D9
:103EC000010F04BF012020620EE00420E062D4E96B
:103ED0000910656101300129A06205D1A06902289D
:103EE00004BF012084F8360003B0BDE8F08380B53C
:103EF000D1F808C0D0F804E0DCF804C0E64507D0EB
:103F00008068D0F800C0DCF81CC0BDE88040604785
:103F1000086950B190420DD0486A013048620220D1
:103F20008861012081F8360009E001200A618B6177
:103F3000486280BD8869022804BF8B6180BD80BD56
:103F40002DE9F04F85B0DDE90E5A0C4689689B4695
:103F50001746BAF1000F80460FD0884505D0D8F833
:103F600004004968FCF750FA60B921463A465B46BE
:103F700005B0BDE8F04FFFF7B4BED8F804004968BB
:103F80008842F2D0D8F8141094F8346094F83530A0
:103F9000D8F80C900020A086C8074FEA212203938E
:103FA00002D0DBF800008258D8F8100089070168B9
:103FB0000BEB02032A4604954D6958BF022200927A
:103FC00021463A46CDF804A0A84794F8341094F856
:103FD0003500039A0E43B9F1020F40EA02053DDBBA
:103FE00008EBC902103208F118090397029200BFCA
:103FF00094F8362092BB39B1A06901282ED098F8E8
:104000000800800705D429E018B198F80800C00717
:1040100024D00020A086D9F80410C8074FEA212236
:1040200002D0DBF80000825859F8080B89070168B4
:104030000BEB0203049A4F6958BF02220092039AC5
:104040002146CDF804A0B84794F8341094F8350010
:10405000029A0E43914545EA0005C9D3002E18BFC8
:104060000126002D18BF012584F8346084F83550EE
:1040700005B0BDE8F08F00002DE9F04F83B0DDF80A
:1040800030900C46896898469346B9F1000F074670
:104090006ED08F4200F0B5807E6849683046FCF7EC
:1040A000B3F9002800F0AD802068874205D0416850
:1040B0003046FCF7A9F9002862D12069584500F084
:1040C000A9806069584500F0A580E06AC4F82080A6
:1040D000042800F0F580F868002840F3E48007EB3E
:1040E000C000103007F110064FF000084FF0000A32
:1040F000029000BF0020A0867168C8074FEA212205
:1041000002D0DBF8000082583068890701680BEBA9
:1041100002034FF001024D6958BF0222009221466E
:104120005A46CDF80490A84794F83600D0B994F8D0
:10413000350098B194F8340058B1A069012800F016
:10414000B780387A4FF0010A80074FF0010805D494
:10415000B0E0387AC00709D04FF0010A029808365B
:104160008642C7D35FEACA7000F0A080C246A1E0D1
:1041700078684968884244D02168496888429CD060
:104180007969FE68C8074FEA212202D0DBF80000F7
:1041900082583869890701685A448D694346214627
:1041A00058BF0223CDF80090A847022EC0F2968097
:1041B000B86807EBC60101F11006810707F118077F
:1041C00002D4616A01292BD194F83600002840F00E
:1041D00085807968C8074FEA212202D0DBF8000009
:1041E000825857F8080B890701685A448D6943467D
:1041F000214658BF0223CDF80090A847B742E3D329
:104200006CE06068584569D1E069012818BFC4F8BE
:104210001C8063E0B8F1010F04BF012020625DE063
:10422000C0071FD194F83600002857D1606A0128D2
:1042300054D07968C8074FEA212202D0DBF8000089
:10424000825857F8080B890701685A448D6943461C
:10425000214658BF0223CDF80090A847B742E1D3CA
:104260003CE000BF94F83600C0BB606A012802D170
:10427000A069012832D07968C8074FEA212202D00C
:10428000DBF80000825857F8080B890701685A4488
:104290008D694346214658BF0223CDF80090A847B8
:1042A000B742DFD31AE00420E06209E0042003E013
:1042B0004FF0010A0320D0465FEAC871E0620DD1D9
:1042C000D4E90910C4F814B001300129A06205D165
:1042D000A069022804BF012084F8360003B0BDE8BD
:1042E000F08F00002DE9F047814688680C46D9F828
:1042F000041040689A468142164621D009F1100800
:10430000D9F80C50404621463246534600F035F865
:10431000022D13DB08EBC50709F12005A5F1080004
:1043200021463246534600F028F8BD4228BFBDE87A
:10433000F08794F8360008350028EFD0BDE8F08704
:10434000206958B1B04210D0606A0130606202202A
:10435000A061012084F83600BDE8F08701202661C5
:10436000C4F818A06062BDE8F087A069022804BF05
:10437000C4F818A0BDE8F087E0E710B5D0F804C095
:1043800042B15FEACC7E4FEA2C2E05D0146854F877
:104390000EE001E04FF0000E00685FEA8C7458BF39
:1043A000022304687244D4F81CC0BDE81040604782
:1043B0007047000080B57838FEF73CF9BDE88040D2
:1043C00000F0BCB87838FEF735B90000FEDE00001A
:1043D000B0B545F27041C0F600010831034643F81C
:1043E000181D9A68A3F1600C32B3D2E90041D2F8EB
:1043F00008E0013C714514600AD099420CD09E45FA
:1044000010D0DCE91B12D160DCF86C1008E000BFB2
:104410000021C2E901110AE0DCF86C1051600022B1
:104420000A6104E0DCF8701091600022CA6000218B
:10443000CCE91A11CCF8701045F2FC31C0F600013D
:104440000831CCF8001045F28041C0F60001DCF8DC
:104450002C3001F1080E614641F824EF23B3D3E973
:1044600000549A68013D94421D6009D08C420BD0E3
:104470008A420FD0DCE90C12D160DCF8301007E082
:104480000021C3E901110AE0DCF830100022596074
:104490000A6104E0DCF8341000229960CA6000214F
:1044A000CCE90B11CCF83410034643F874ED9A684C
:1044B000002A08BFB0BDD2E900549168013D8C428A
:1044C000156009D09C4211D099421BD050E91A12B4
:1044D000D16050F8681C0DE00021C2E901110021F3
:1044E00040E91B1140F8641CB0BD00BF50F8681CC7
:1044F000516000220A61002140E91B1140F8641C50
:10450000B0BD00BFDCF8141091600022CA60002129
:1045100040E91B1140F8641CB0BD00007838FDF77D
:10452000CBBE000080B56038FDF716FFBDE88040C7
:1045300000F004B86038FDF70FBF0000FBF77BBE4A
:10454000FBF74ABE01A000F077F800BF5075726516
:10455000207669727475616C2066756E6374696F1C
:104560006E2063616C6C65642100000040F23010C5
:10457000C2F200000178C90718BF704740F2341139
:10458000C2F200010022C1E900220121016070474E
:10459000F0B591B01446026852E90256CDE90340E5
:1045A000054403A8CDE9051310302721FBF77AFE57
:1045B0007068616888421BD030680024876903A94D
:1045C00030462A4601230094B8470C98012821D090
:1045D00078BB0D99DDE90A0281F0010180F001004C
:1045E000089C82F001020843104318BF002420E019
:1045F00001200F90316800274C69009003A93046D4
:104600002A462B460197A0470998012818BF3D4626
:104610002C460EE00998012801D1079C09E00D986D
:10462000002430B90A98012803D10B98012808BF4B
:10463000079C204611B0F0BDFBF724FE90B0FCF7BC
:104640002FF900240120CDE90B44CDE9094406905F
:104650000A904FF4E0104FF4803102250F9006A825
:104660000594CDE90344CDE90144CDE90714CDE932
:104670000D51FCF79BFA28B1EFF3108072B600BF22
:10468000FEE700BF0F20CDE901054FF48060CDE9C2
:10469000040401A802210394FCF7A8F920B1EFF368
:1046A000108072B6FEE700BFFDF7FAFAFDF73CFB9B
:1046B00000F006F800F042F800F014F8FCE7000003
:1046C00010B540F2CC00C2F2000080684468002CB3
:1046D00008BF10BD6068016809688847E468002C5D
:1046E000F8D110BDB0B540F23414C2F20004D4E9E0
:1046F0000001012908BF002804D12046FEF71EFE54
:104700000120206040F2CC01C2F2000189684D6BAB
:1047100045B100BF6868016809688847ED68002DE9
:10472000F8D12068012808D16068012818BFB0BD01
:104730002046FEF70DFE00202060B0BDB0B540F26F
:10474000CC04C2F20004A068056935B1686801684C
:1047500009688847ED68002DF8D1FEF7F5F804F1F7
:104760001C00FEF74DF9002818BFB0BD45F24650B9
:1047700045F27E51C0F60000C0F600011222BDE8ED
:10478000B040FFF7EDB8000080B5017811B941786D
:10479000012901D1002080BD89075FBF022141703E
:1047A000012080BD01A0FFF747FF00BF5F5F637876
:1047B000615F67756172645F6163717569726520BD
:1047C000646574656374656420726563757273698A
:1047D000766520696E697469616C697A6174696F64
:1047E0006E000000012101704170704790EA010FD6
:1047F00048BF81F0004100F13482421A3CBF801A68
:1048000089184FEAD052A2EBD1534FF07F4C1CEAEB
:10481000410F18BF9CEA026F00F03B804FF0004C44
:104820004CEA00204CEA012121FA03FC10EB0C0CAD
:104830001ED202F1FF325FEA1C2040EBC25038BFAB
:1048400070471CF07F0F4FEA400C18BFBCF17F4F40
:1048500038BF7047C3F12003994008BF20F0010022
:10486000BCF17F4F38BF7047A0F1C04000F0EDB9F8
:104870004FEA3C00000A40EBC25028BF1CF0FF0F7B
:104880004FEA400CE6D018BFBCF17F4F38BF7047ED
:10489000EAE79CEA026F05D010EA5C0F08BF00F05F
:1048A0000040704710B500F08AF900BF64FBBE3EBF
:1048B00010B500F033F80CBF0120002010BD10B57A
:1048C00000F02CF814BF0120002010BD10B500F03E
:1048D0008DF88CBF0120002010BD10B500F086F8C7
:1048E0002CBF0120002010BD10B500F0B3F894BF1C
:1048F0000120002010BD10B500F0ACF834BF01203D
:10490000002010BD401058BFC0F14040491058BFB2
:10491000C1F140418142EFF30080704750EA010C41
:1049200000F113801CF5000F58BFBCF5000F01D437
:104930008842704707D710F5000F58BF11F5000FD8
:1049400015D488427047894270471CF5000F04D582
:10495000BCF5000FF7D5814270474FF0807C1CEB0F
:10496000400F38BF1CEB410F01D28142704710B598
:1049700000F025F9922449004FF000504FF080518B
:10498000FFF7C0BF41000B0ED3F19E0208D950F4CF
:1049900000034FEA032323FA02F048BF4042704766
:1049A00010B500F00CF900BF499224800020704738
:1049B0006FF0004282EA20007047000010F00041D2
:1049C00048BF4042B0FA80F310FA03F2C3F19D03EE
:1049D0000BD051EAC35101EB1220530638BF704788
:1049E00000F1010008BF20F00100704750EA010CFF
:1049F00000F113801CF5000F58BFBCF5000F01D467
:104A00008842704707D710F5000F58BF11F5000F07
:104A100015D488427047894270471CF5000F04D5B1
:104A2000BCF5000FF7D5814270474FF0807C1CEB3E
:104A3000400F38BF1CEB410F01D28142704710B5C7
:104A400000F0BDF8922449004FF080504FF0005123
:104A5000FFF758BF50EA010C00F113801CF5000F5E
:104A600058BFBCF5000F01D48842704707D710F536
:104A7000000F58BF11F5000F15D4884270478942C6
:104A800070471CF5000F04D5BCF5000FF7D5814227
:104A900070474FF0807C1CEB400F38BF1CEB410F80
:104AA00001D28142704710B500F089F89224490084
:104AB0004FF000504FF08051FFF724BF4FF47F0CB0
:104AC0001CEAD0121EBF1CEAD11392EA0C0F93EA23
:104AD0000C0F00F0478090EA010F48BF42F480724B
:104AE0004FF0004C4CEA00204CEA012102EB03029B
:104AF000A0FB0113A2F50002002918BF43F0010337
:104B00005B0028BF4FEA330342EB22425FEA132CDB
:104B10004CEBC2502EBFBCEB436FB2F57C0F70471D
:104B20004FEA036CBCF1004F08BF20F00100B2F562
:104B30007C0F38BF70470BD582F0FF0212F5803F23
:104B4000C8BF704700F1C040D8BF00F000407047B8
:104B500000F5000C5FEA4C0C48BF7047B0F1C04054
:104B600000F073B80CEAD11390EA010F48BF42F489
:104B70008072624538BF634504D280EA010000F0CC
:104B80000040704710B500F01AF800BF8900013EE0
:104B900000F007B800F009B85FEA410C5FEA1C6C4E
:104BA00008D080EA010000F050B85FEA400C5FEAEC
:104BB0001C6CF6D14FF00040A0F5800070470EF15C
:104BC000020E2EF0030E5EF8044B244204D44FEA8A
:104BD0004102B2F17F4F11D84FEA4003B3F17F4F4A
:104BE0000CD80ED14FEAD07C0CEB4C0C0CF1020C23
:104BF000B2F17F4F08BF4CEBD17C04E04FF0080CC2
:104C000001E04FEAD17C0CEB4C0324FA03F404F0EE
:104C10000704B4F1040C06D20EEB840CBDE810407E
:104C20004CF0010C6047DFE80CF0070802024FF07F
:104C30000040A0F5800010BD0846420018BFD2F128
:104C4000807288BF00F0004010BDFF2141EAD050C3
:104C5000C005704790EA010F48BF81F000413FF561
:104C6000CCAD421A04D882F00042A0EB02001144FD
:104C70004FEAD052A2EBD1534FF07F4C1CEA410FC8
:104C800018BF9CEA026F4AD04FF0004C4CEA00205B
:104C90004CEA012121FA03FCB0EB0C0C0FD412F00A
:104CA000FE0F36D05FEA4C001DD5001240EBC2501B
:104CB00038BF70471CF03F0F18BF70470BE05FEA2A
:104CC0001C20A2F1010240EBC25038BF70471CF01B
:104CD0007F0F18BF7047C3F12003994014BF401ED7
:104CE00020F0010070474FEA1223800808BF704788
:104CF000B0FA80FCA2EB0C02CCF1280C60FA0CF0AC
:104D000093EA122F04BF00EBC25070474FEAC37002
:104D10007047130A5FEADC1008BF7047F6E79CEAA9
:104D2000026F04D010EA5C0F08BF0020704710B576
:104D3000FFF745FF40DFF63E81F00040704701027B
:104D400054010020600100206C0100207801002047
:104D500084010020000000000000000001020304A4
:104D60000607080904530008004F00082C530008E8
:104D7000054F0008F84E00082C530008264F000885
:104D80006C4D00082C530008484F0008784D00086F
:104D90002C5300086D4F0008784D00082C53000874
:104DA000934F00081C4E000854530008A74F0008FA
:104DB0000000000002000000384E00080200000061
:104DC000F44D00080260000054530008D64F00085C
:104DD0000000000002000000444E00080200000035
:104DE000244E0008026000002C5300080050000808
:104DF000684E0008545300081D50000800000000D1
:104E000002000000144E000802000000644D00087B
:104E1000020C00000453000832500008045300083C
:104E20004550000804530008525000082C53000855
:104E3000625000081C4E00082C53000871500008F6
:104E40002C4E00082C530008925000082C4E0008ED
:104E50002C530008B9500008EC4E00082C530008F1
:104E6000D5500008E44E000854530008F2500008E2
:104E700000000000020000009C4D0008020000003D
:104E80005C4E0008027800002C5300080451000812
:104E90009C4E0008045300083B51000804530008CE
:104EA00066510008045300088A51000804530008A2
:104EB000B05100082C530008E4510008944E00083B
:104EC0002C530008135200089C4E00082C53000875
:104ED0003B520008A44E00082C53000865520008FD
:104EE000AC4E0008045300089D5200082C530008E3
:104EF000B75200085C4E000804530008EF52000847
:104F00003370776D004E31305F5F6378786162692E
:104F1000763131365F5F7368696D5F747970655F94
:104F2000696E666F45004E31305F5F63787861620D
:104F300069763131375F5F636C6173735F74797069
:104F4000655F696E666F45004E31305F5F637878EC
:104F5000616269763132305F5F73695F636C617380
:104F6000735F747970655F696E666F45004E3130AE
:104F70005F5F637878616269763132315F5F766D49
:104F8000695F636C6173735F747970655F696E6686
:104F90006F45004E346D65786F313069737562739B
:104FA000797374656D45004E346D65786F31386383
:104FB0006F6E74726F6C6C65725F626C6F636B5F47
:104FC00074494E535F3270733370776D4933707725
:104FD0006D45454545004E346D65786F3138636FDA
:104FE0006E74726F6C6C65725F626C6F636B5F7412
:104FF000494E535F3472616D7049664545454500C1
:105000004E346D65786F31397072696F726974658D
:10501000745F73756273797374656D45004E346D9A
:1050200065786F3270733370776D493370776D4583
:1050300045004E346D65786F32707337636F6E74F0
:10504000726F6C45004E346D65786F346E6F6465B9
:1050500045004E346D65786F3472616D70496645F8
:1050600045004E346D65786F3669626C6F636B45D1
:10507000004E346D65786F37626C6F636B5F744997
:105080004E3370776D38636F6E6669675F73454541
:1050900045004E346D65786F37626C6F636B5F747B
:1050A000494E535F3472616D7049664538636F6E67
:1050B0006669675F73454545004E346D65786F37A7
:1050C0006D616368696E6534736C6F743673696D96
:1050D000706C6545004E346D65786F376D6163683F
:1050E000696E6534736C6F743764656C6567617481
:1050F00045004E346D65786F3973756273797374DA
:10510000656D45004E34726F626F346C6973743430
:1051100070616972494E346D65786F346E6F646585
:1051200045694E53305F36756E6971756549533305
:105130005F6945454C6231454545004E34726F62AA
:105140006F346C69737438626173655F7265664948
:105150004E346D65786F313069737562737973742D
:10516000656D454545004E34726F626F346C6973EE
:105170007438626173655F726566494E346D657837
:105180006F346E6F6465454545004E34726F626FD3
:10519000346C69737438626173655F726566494E19
:1051A000346D65786F3669626C6F636B4545450099
:1051B0004E34726F626F346C6973743862617365F8
:1051C0005F726566494E346D65786F376D616368EF
:1051D000696E6534736C6F743764656C6567617490
:1051E000454545004E34726F626F346C6973743894
:1051F000756E736F72746564494E346D65786F3186
:10520000306973756273797374656D454533726582
:105210006645004E34726F626F346C697374387512
:105220006E736F72746564494E346D65786F346E59
:105230006F646545453372656645004E34726F6232
:105240006F346C69737438756E736F72746564490A
:105250004E346D65786F3669626C6F636B454533AC
:1052600072656645004E34726F626F346C69737498
:1052700038756E736F72746564494E346D65786FFE
:10528000376D616368696E6534736C6F743764651C
:105290006C6567617445453372656645004E3472CE
:1052A0006F626F3764656C656761743462617365E2
:1052B00049764A454545004E34726F626F376465E2
:1052C0006C656761743673696D706C65494E346DD9
:1052D00065786F376D616368696E6534736C6F7480
:1052E0003764656C6567617445764A45454500538A
:1052F0007439747970655F696E666F000000000034
:10530000784D0008472100084B210008C53B0008E4
:10531000C73B0008453D0008C93B0008FF3B0008AB
:105320009F3C000800000000844D00084721000851
:1053300059210008C53B0008C73B0008453D00084F
:10534000B73D00080D3E0008EF3E000800000000D9
:10535000904D00084721000867210008C53B000860
:10536000C73B0008453D0008413F00087940000860
:10537000E5420008000000009C4D0008852200085E
:10538000454500084545000800000000A84D0008FC
:10539000892D000825230008E92200085923000868
:1053A00049230008A0FFFFFFA84D0008354500086D
:1053B0002545000800000000C84D0008912D000898
:1053C000CD2400089924000800000000E84D0008E2
:1053D00085220008012600089125000839330008BD
:1053E000352600082526000888FFFFFFE84D000845
:1053F0001D450008C5430008B54300080000000033
:105400001C4E000845290008000000002C4E000832
:10541000452900084545000800000000504E0008DE
:10542000193B0008153B0008A12E000800000000F1
:10543000684E0008852200084545000845450008DB
:1054400039330008C1320008BD32000888FFFFFF71
:10545000684E00081D450008D1430008CD430008F0
:1054600000000000884E0008013600088D34000856
:1054700000000000944E000835350008E1340008B3
:10548000000000009C4E000801360008AD35000801
:1054900000000000A44E0008CD3600087936000850
:1054A00000000000AC4E000899370008453700089E
:1054B00000000000B44E000835350008113800081F
:1054C00000000000C04E00080136000865380008E2
:1054D00000000000CC4E0008CD360008B9380008A6
:1054E00000000000D84E0008993700080D39000868
:1054F00002030405060708090A0B0C0D0E0F101015
:105500002E2E2F2E2E2F2E2E2F736F757263652F3A
:10551000706C6174666F726D2F73746D33324631C7
:1055200030332F6D65786F2D746573742D706572CF
:105530006570686572792E637070006F7065726156
:10554000746F725B5D0073746172745F006E65737B
:10555000746564206572726F720D0A0925730D0AF5
:10556000092573202D202564006E6F646500726527
:10557000636F6E66696700617474616368002E2EE4
:105580002F2E2E2F2E2E2F2E2E2F726566657265D2
:105590006E63652F726F626F73642D7265662F6D17
:1055A00065786F2F6D65786F2E63707000726F6F06
:1055B00074000000E85500080000002030000000E2
:1055C000280100081856000830000020C408000018
:1055D000440100087DC9FFFF95EFFFFF21CBFFFFCE
:1055E00041CBFFFF19C9FFFF1000000001000000C0
:1055F0000024F4000100000000000000F0F1100E93
:10560000000096430000000017B7D138000040C1E9
:08561000000040410000000011
:04000005080000ED02
:00000001FF
