:020000040800F2
:10000000B80D002039020008C12B00089527000810
:10001000BD2B0008D9070008C12E00080000000011
:10002000000000000000000000000000C92B0008D4
:10003000E907000800000000C52B0008CD2B0008D0
:10004000530200085302000853020008530200083C
:10005000530200085302000853020008530200082C
:10006000530200085302000853020008530200081C
:10007000530200085302000853020008530200080C
:1000800053020008530200085302000853020008FC
:10009000DD0700085302000853020008530200085D
:1000A000530200085302000853020008952C000870
:1000B00053020008530200085302000853020008CC
:1000C00053020008530200085302000853020008BC
:1000D00053020008530200085302000853020008AC
:1000E000530200085302000853020008530200089C
:1000F000530200085302000853020008530200088C
:10010000530200085302000853020008530200087B
:10011000530200085302000853020008530200086B
:10012000530200085302000853020008530200085B
:100130005302000800000000000000005302000805
:10014000530200085302000853020008530200083B
:10015000530200085302000853020008530200082B
:10016000530200085302000853020008530200081B
:1001700053020008530200080000000000000000C5
:10018000530200085302000800F002F800F045F89E
:100190000AA090E8000C82448344AAF10107DA45E2
:1001A00001D100F03AF8AFF2090EBAE80F0013F0EF
:1001B000010F18BFFB1A43F0010318475C5E0000F3
:1001C0007C5E0000103A24BF78C878C1FAD8520784
:1001D00024BF30C830C144BF04680C6070470000C1
:1001E0000023002400250026103A28BF78C1FBD840
:1001F000520728BF30C148BF0B6070471FB505F0DC
:10020000B5FA9DE8030000F073F900F03DF91FBD59
:1002100010B5002000F024FA10BD00F066FA114677
:10022000FFF7ECFF05F0F4F900F084FA03B4FFF7F0
:10023000EFFF03BC00F03AF909488047094800473E
:10024000FEE7FEE7FEE7FEE7FEE7FEE7FEE7FEE786
:10025000FEE7FEE704480549054A064B70470000E3
:10026000812C000889010008B8050020B80D002085
:10027000B8090020B809002070B5064600F01CF946
:10028000056806F10B0020F00704B4429CBF002073
:1002900070BD2B466A68BAB11068A04210D304F151
:1002A000080188423CBF5068586007D35168101954
:1002B00041601168091B016058601460101D70BD19
:1002C00013465268002AE7D12146284600F0FCF880
:1002D0000028DED170BD70B50446051F00F0ECF8B3
:1002E0000068002C14BF446870BD002C18BFAC42DD
:1002F0003CBF20466468F8D301680A18AA4218BFB8
:10030000456003D12A6805461144016028684119F7
:10031000A1421CBF6C6070BD6168696021680844BF
:10032000286070BD53EA020C00F069802DE9F04BA3
:100330004FF00006002B1FBFB3FA83F503FA05F454
:1003400024FA05F65E4012BF1643B2FA82F502FAAD
:1003500005F4C5F120051EBF22FA05FC44EA0C0491
:10036000203556EA044C4FEA144418BF641C4FF081
:1003700000084FF00009904271EB030C39D30029BB
:1003800019BFB1FA81F701FA07F6B0FA80F700FA5F
:1003900007F6C7F120071EBF20FA07FC46EA0C0645
:1003A0002037B6FBF4FCA7EB0507103F07F01F0B47
:1003B000CBF120062CFA06F60CFA0BFB44BFB34631
:1003C0000026202FA4BF5E464FF0000B5BEA060C10
:1003D00008BF4FF0010B19EB0B0948EB0608ABFB0C
:1003E000027C06FB02CC0BFB03CCC01B71EB0C01A7
:1003F000C1E70B46024641464846BDE8F08B13B5BF
:10040000084318BF4FF0FF300146AFF30080BDE84E
:100410001C40704710B5002000F0B7F8FFF7F8FE59
:10042000BDE81040012000F041B80B4601461846D7
:1004300000F094B84FF0000200B51346944696467B
:10044000203922BFA0E80C50A0E80C50B1F12001E7
:10045000BFF4F7AF090728BFA0E80C5048BF0CC095
:100460005DF804EB890028BF40F8042B08BF7047F3
:1004700048BF20F8022B11F0804F18BF00F8012B65
:10048000704770477047704770B5064C7C44064D06
:100490007D4404E02046016808448047241DAC42A6
:1004A000F8D170BDA85B0000B85B000001491820BE
:1004B000ABBEFEE72600020000487047380000206F
:1004C000704770477047704738B504460A460020A9
:1004D0006946AFF30080002808BF38BD0246009986
:1004E000204600F0A3F8012038BD012000F0F6B846
:1004F000F8B5AFF30080054600200C46102000BF81
:100500000646A819A0420DD9324669460020AFF32D
:100510000080070008BF00F0E1F80098A04218BF73
:100520000546C419FFF7C8FF05600746F01D20F017
:1005300007004619284600F00AF8B44208BFF8BD83
:10054000A21B31463868BDE8F84000F06FB80021C2
:100550000160C0E901107047102070472DE9F0419B
:10056000074615460E461020FFF786FE04000AD007
:100570006760C4E9026500F055F801682160046015
:100580000020BDE8F0810120FBE710B500F08EF8F7
:10059000BDE8104000F085B84FF0013C50F8042B46
:1005A00051F8043B9A4221D1A2EB0C03934313EA86
:1005B000CC1317D150F8042B51F8043B9A4215D1B3
:1005C000A2EB0C03934313EACC130BD150F8042B8A
:1005D00051F8043B9A4209D1A2EB0C03934313EA6E
:1005E000CC13DBD04FF00000704700BFD01A01BA27
:1005F000B1FA81F101F0180122FA01F0CB40DBB22F
:10060000C0B2C01AC1F120012CFA01F3D11A9143F2
:1006100011EAC311E6D1704700487047300000204E
:10062000704700000048704768000020034640689B
:100630008C46002818BF88423CBF03464068F8D368
:1006400018681844884207D00CF1030020F0070016
:10065000001D411A521A0146081D0A60FFF73BBEF1
:100660002DE9F0410646FFF7DDFF8046454613E0E1
:1006700016B1E068B0420ED120682860D4E90101CB
:10068000D8F8007088472046FFF725FED8F800000C
:10069000B842EBD100E025462C68002CE8D1BDE83B
:1006A000F081002801D0FFF701BF704710B500218D
:1006B00002A000F048F8012010BD00005349474156
:1006C0004252543A2041626E6F726D616C207465C3
:1006D000726D696E6174696F6E00000010B500F094
:1006E0004BF8BDE81040FFF7DCBF7546FFF794FFFD
:1006F000AE4605006946534620F00700854618B00F
:1007000020B5FFF7A7FDBDE820404FF000064FF0F1
:1007100000074FF000084FF0000BAC46ACE8C009F2
:10072000ACE8C009ACE8C009ACE8C00921F0070199
:100730008D46704710B50446AFF300802046BDE8F3
:100740001040FFF773BD70B505460C460A2000E067
:100750006D1C00F039F835B128780028F8D102E096
:10076000641C00F031F814B120780028F8D1BDE8FD
:1007700070400A2000F028B810B5012805D00021EB
:1007800003A0FFF7E0FF012010BD09A1F8E700007A
:1007900053494752544D454D3A204F7574206F666A
:1007A0002068656170206D656D6F727900000000D2
:1007B0003A2048656170206D656D6F727920636FB6
:1007C000727275707465640008B569468DF8000032
:1007D0000320ABBE08BD0000FEE7000040F26C4005
:1007E000C2F2000000F034BA70470000EFF310804E
:1007F00072B600BFFEE70000F0B5C26B012A04BF6D
:100800000220F0BDD1F800C00122BCF10A0FC26382
:100810000AD31FFA8CFE03680EEB4E02A2F11E04EF
:1008200003F10C0206E000BF03680CEB4C0403F17B
:100830001002E64607251668A54026EA050515605C
:100840008D68166805FA04F4344314609A6B002628
:1008500022F440129A634D680A69CC69CFF6F076AB
:100860009F6B06EB0256AA1A3E4303329E63D2B236
:1008700002EB82021F269F6B964027EA06069E63C4
:100880009E6B0EFA02F232439A639A68012722F4B1
:1008900070229A609A68C0F20F07BC4202D122F41B
:1008A000401409E022439A609A6822F440129A6048
:1008B0000A6A9F6847EA02049C60D1E905275E68DE
:1008C000002F26F4806618BF06F580665E605F68BC
:1008D000002A27F4805718BF07F58057032D5F6063
:1008E00008D0022D0AD0012D14BF03F1200203F11C
:1008F000140205E003F11C0202E000BF03F118023C
:10090000176840F6FF76B7431760CF68166842F263
:100910000431C4F201013743A1F54176B3421760B7
:1009200004D00021C1630846F0BD00BFBCF1120F26
:1009300004D10A6842F4800207E000BF2CF00102F3
:10094000102AEED10A6842F400020A600021C16355
:100950000846F0BD70B581B000220092C26B012A3A
:1009600004D10221084601B070BD00BFD1F800E0FB
:100970000122BEF10A0FC2630AD31FFA8EF2066883
:1009800002EB4202A2F11E0306F10C0205E000BFD9
:1009900006680EEB4E0306F110024FF0070C1568C7
:1009A0000CFA03F4A54315608D68146805FA03F387
:1009B000234313604968062906D801EB81010539F4
:1009C00006F134020AE000BF0C2901EB810187BF68
:1009D000413906F12C02233906F130021F23146835
:1009E0008B4024EA030342F2043C1360C4F2010C7E
:1009F0001FFA8EF3146803FA01F1ACF54173214339
:100A00009E4211603ED1BEF1120F07D1DCF80010FA
:100A100041F48001CCF8001034E000BF2EF0010159
:100A200010292FD1DCF80010BEF1100F41F40001A5
:100A3000CCF8001026D140F20801C2F2000109688A
:100A40004DF68362C4F21B32A1FB0212910C01EB42
:100A50008101490000910099A1B1009901390091EB
:100A6000009979B1009901390091009951B100992B
:100A700001390091009929B100990139009100993B
:100A80000029EAD10021C163084601B070BD000011
:100A9000002804BF0120704710B50446006C0028F0
:100AA0003ED0206CC00644D4206C41F20211884331
:100AB000023042F204312064C4F20101086820F4DB
:100AC000403008600A6894E809101A43D4F810E02E
:100AD0000A604168012321F4807141604168C0F6D9
:100AE000007341EA0E214160416821F0407141608C
:100AF000416841EA0C014160816821F40061816034
:100B0000E168826811438160A16A8268994222F09B
:100B100070628260826811D122F0405117E000BFFC
:100B2000204600F061F800206064E063206CC0069D
:100B3000BAD501200021E16310BD00BF11438160DF
:100B4000816821F040518160E16A826811438160CF
:100B5000816821F0020181608168A269236A41EA0B
:100B60004201816041688BB141F40061416041689C
:100B70004EF2000221F460414160616ACFF6FF72DB
:100B8000436802EB4131194302E000BF21F40061E8
:100B90004160C16A40F2000C21F47001C162E26957
:100BA000D4F814E0236BCFF6F07CC16A0CEB025250
:100BB0001143C1628168012221F400718160816862
:100BC00041EA43218160816821F48061816081680C
:100BD00041EA8E21816000206064216C62F3010192
:100BE00021640021E16310BD80B586B042F20001AE
:100BF0000068C4F20101002288420592049201D0EB
:100C000006B080BD43F630000092C4F20200436992
:100C100043F480734361436903F480730093009B42
:100C20000092036843F001030360006800F00100D4
:100C300000900098182001900320CDE9020201F5F0
:100C4000604001A900F0FEF906B080BD70470000C9
:100C50002DE9F04F81B0044600684669D0F8049051
:100C60008768D0F80CB0D0F810A0D0F81880F10741
:100C700004D1002530071DD424E000BFF90710D0AF
:100C80000121BA07816009D4780700F1AF803807E5
:100C900000F1B680204600F0C7F902E0204600F0DF
:100CA000C5F90025F80500F18780F80300F1B1804F
:100CB000300707D51BF0100004D0206845F40075FC
:100CC0001021C160700708D51BF0080005D020680E
:100CD0000821C160204600F09DF9B00706D52068C4
:100CE000C068800702D0204600F096F9700607D54C
:100CF0001AF0100004D0206845F4806510210161CD
:100D0000B00608D51AF0080005D020680821016156
:100D1000204600F083F9F00606D5206800698007B8
:100D200002D0204600F07CF9B00308D519F010007D
:100D300005D0206810214160204600F073F9F003CF
:100D400008D519F0080005D0206808214160204628
:100D500000F076F9300440F19B805FEA497040F181
:100D6000948006F4807008EA102028435FEA8871B6
:100D7000014648BF41F00201B20558BF01465FEA93
:100D800048700D4648BF45F00405700558BF0D4634
:100D9000300540F17A8018F0700000F0768010384D
:100DA000000905286CD8DFE800F003595D6165692A
:100DB00045F0080564E000BF20684FF48071BA0573
:100DC00081600BD4780515D438051DD4204600F079
:100DD0002FF9F8037FF56CAF1BE000BF204600F051
:100DE00029F9F8037FF564AF13E000BF4FF4006505
:100DF00058E700BF05F50055F8037FF559AF08E047
:100E00004FF480554EE700BF05F58045F8037FF5A8
:100E10004FAF20684FF48031BA0381600AD4780361
:100E200010D4380314D4204600F006F930073FF5FB
:100E300041AF47E7204600F001F930073FF53AAFF0
:100E400040E700BF05F5004530073FF533AF39E710
:100E500005F5803530073FF52DAF33E745F0100538
:100E60000EE000BF45F020050AE000BF45F0400558
:100E700006E000BF45F0800502E000BF45F4807544
:100E80002068816921F0700181612068042141603E
:100E900055B1606B40EA05012046616301B0BDE8D1
:100EA000F04FFFF7D3BE00BF01B0BDE8F08F0000E8
:100EB000B0B5B8B10446006B10B9204600F06CF82C
:100EC0002068016841F00101016000F09FF90546CA
:100ED00020684168C90707D100F098F9401B0B282A
:100EE000F6D312E00120B0BD016821F002010160DB
:100EF00000F08CF9054600BF2068416889070DD5D0
:100F000000F084F9401B0B28F6D3606B052140F4F8
:100F10000030606301202163B0BD00BFA169026899
:100F2000012922F0800208BF80320260E169026874
:100F3000012922F0400208BF40320260216A0268A3
:100F4000012922F0200208BF20320260616A026893
:100F5000012922F0100218BF10320260A16A026853
:100F6000012922F0080208BF08320260E16A026823
:100F7000012922F0040208BF04320260251D2ECD93
:100F80001A4363692A431A4301391143C16100209E
:100F9000012160632163B0BD80B586B0016846F26F
:100FA0000040C4F20000814202D006B080BD00BF04
:100FB000002143F630020191C4F20202136900F5E8
:100FC000D03043F000731361136903F00073019391
:100FD000019B0191136843F002031360126802F051
:100FE00002020192019A4FF4407201920222CDE96D
:100FF0000221032104910921059101A900F022F8A1
:1010000014200121002200F081F9142000F06EF973
:1010100006B080BD704700007047000070470000B8
:1010200070470000704700007047000070470000E4
:1010300070470000704700007047000070470000D4
:10104000704700002DE9F04F82B000F13E4241F6BA
:10105000004502F1FF77C4F2020508224FEAB726E5
:10106000A84208BF0722072E38BF4FEAB7224FF029
:10107000010E002400274FF00008009208E000BF96
:10108000023708F10108202F04F1040400F0B480B5
:101090000E680EFA08F916EA090FF1D0D1F804A08B
:1010A0000AF0030BABF10106012E19D80322866862
:1010B00002FA07FECA6826EA0E06BA403243826088
:1010C0004268CAF3001522EA090205FA08F54FEA58
:1010D000480C6FEA0E064FF0010E2A4342600BE007
:1010E0000322BA40D643BBF1030FBC4604D1BC4631
:1010F0004FF0030B24E000BFC2688D68324005FA50
:101100000CF52A43BBF1020FC26019D16FF0030244
:1011100002EA5802024404F01C030F25D2F820E032
:1011200005FA03FA0D692EEA0A0E05FA03F343EAFB
:101130000E031362D1F804A04FF0010E0AF0030B66
:1011400002680BFA0CF332401A431AF4403F026073
:1011500096D0002243F644030192C4F202031A68B7
:1011600043F6004C42F480421A601A68C4F2010C43
:1011700002F480420192019A28F003024FF6084AD5
:101180006244CFF6FF7A52F80A3004F00C060F25BD
:10119000B540AB43009D05FA06F6334342F80A30EA
:1011A000DCF800204B6842EA0906DD0358BF22EA5A
:1011B0000906CCF80060DCF804209D0342EA090629
:1011C00058BF22EA0906CCF80460DCF80820DD02EA
:1011D00042EA090643F60C4558BF22EA0906CCF854
:1011E0000860C4F201052A689B0242EA090658BF5A
:1011F00022EA09062E6043E702B0BDE8F08F000046
:10120000002A08BF090481617047000040F2B45011
:10121000C2F200000068704740F2000040F2B45192
:10122000C2F20000C2F2000140680A68104408607F
:101230007047000080B543F60040C4F20200016828
:1012400041F400710160016841F48061016001684E
:1012500041F480710160032000F084F8002000F068
:1012600005F800F027F8002080BD000070B540F2BE
:101270000006C2F2000640F208017268C2F20001E4
:101280004FF47A730968B3FBF2F20446B1FBF2F152
:10129000084600F0E7FB0F2C4FF0010508D838B9DD
:1012A0004FF0FF3021460022002500F02FF8346077
:1012B000284670BD82B0002043F640010190C4F280
:1012C00002014A6842F480424A604A6802F480425D
:1012D0000192019A0090086840F080500860086808
:1012E00000F080500090009802B07047002848BF7E
:1012F000704700F01F01012202FA01F14EF20012C4
:101300004009CEF2000242F82010704710B54EF6A8
:101310000C5CCEF2000CDCF80030C3F3022E8EF031
:101320000704042C28BF0424BEF103034FF0FF3E42
:101330000EFA04F438BF0023A14399400EFA03F3D8
:101340009A4300F00F03043B1143634409010C333B
:1013500000F16042B0F1FF3FC8BF02F5644319706D
:1013600010BD00004EF60C51CEF200010A684FF697
:10137000FF031A4060F30A2242F0806040F0FD70E3
:10138000086070472DE9F041002800F08B8043F69B
:101390000808C4F202080446D8F8F8030D4600F025
:1013A0000700884207D288F8F853D8F8F80300F00D
:1013B0000700A84276D12068810717D5410705D5D7
:1013C000D8F8001041F4E051C8F80010010705D525
:1013D000D8F8001041F46041C8F80010D8F80010A7
:1013E000A26821F0F0011143C8F80010C0073FD1F6
:1013F000D8F8F80300F00700A84207D988F8F85396
:10140000D8F8F80300F00700A8424BD12068410744
:1014100007D5D8F80010E26821F4E0511143C8F86C
:101420000010000708D5D8F80000216920F46040BA
:1014300040EAC100C8F8000000F07CF8D8F80010BD
:1014400045F29C72C1F30311C0F60002515C40F2F8
:10145000080220FA01F140F20000C2F20000006828
:10146000C2F200021160FFF701FF0020BDE8F08129
:101470006068811E022907D258F8081C89015CBFE8
:101480000120BDE8F08111E0012807D158F8081CBF
:1014900089035CBF0120BDE8F08107E058F8081C13
:1014A000890703D40120BDE8F08100BFD8F80010FF
:1014B00021F003010843C8F80000FFF7A7FE064625
:1014C00041F28837D8F80000616800F00C00B0EBFA
:1014D000810F8DD0FFF79AFE801BB842F2D903200E
:1014E000BDE8F08140F2080043F60801C2F20000B6
:1014F000C4F202010068096845F2AC72C1F38221AE
:10150000C0F60002515CC8407047000040F208007D
:1015100043F60801C2F20000C4F202010068096843
:1015200045F2AC72C1F34231C0F60002515CC840D2
:101530007047000010B543F60404C4F2020460686A
:1015400000F00C0142F200400829C0F2F40007D07C
:10155000042918BF10BD41F20020C0F27A0010BD6E
:10156000216801F03F02216823684902C3F3881112
:1015700006D4A1FB00010023FEF7D4FE07E000BF64
:1015800041F20020C0F27A004843B0FBF2F021683B
:101590000222C1F3014102EB4101B0FBF1F010BDA9
:1015A0002DE9F04182B000286AD00446007843F665
:1015B0000006C007C4F202060BD0B06800F00C00B1
:1015C000042840F0A1803068800302D560680028BC
:1015D00056D0207880071AD5B06810F00C0F09D0CB
:1015E000B06800F00C00082840F0A8807068400245
:1015F00000F1A4803068800702D5E06801283FD15F
:101600003068216920F0F80040EAC100306020789D
:10161000000739D4207840074ED4A5695DB3B0687F
:1016200000F00C00082840F0BD80012D28D0706823
:10163000E16900F480028A4222D1216A00F03F026F
:101640008A421DD147F6C071626A0140B1EB821F28
:1016500016D1A26A0023CFF6FF7303EBC23200F467
:1016600040316FF30F0291420AD1E16A00F07060DD
:10167000B0EB016F04D1002002B0BDE8F08100BFE3
:10168000012002B0BDE8F0816069002840F200004E
:10169000C4F2472076D00121C0F8801EFFF7B6FDC6
:1016A000054600BF706F8007B4D4FFF7AFFD401B45
:1016B0000228F7D9DDE000BF306C10F080580AD165
:1016C00000200190306C40F080503064306C00F0AD
:1016D00080500190019847F20007C4F20007386873
:1016E000C00541D4386840F480703860FFF78EFD43
:1016F000054600BF3868C00536D4FFF787FD401B9C
:101700000228F7D9B5E000BFB06800F00C00082847
:1017100003D1706840023FF556AF6068B0F5803F76
:1017200007D0B0F5A02F40F08D80306840F48020C5
:101730003060306840F4803030608DE0E068002830
:1017400052D00020C4F2472001210160FFF75EFD66
:10175000054600BF306880073FF552AFFFF756FDE2
:10176000401B0228F6D984E0A068012805D005288E
:101770004ED1306F40F004003067306F40F0010010
:1017800030674FE00021C0F8801EFFF73FFD05469F
:10179000706F80077FF53EAFFFF738FD401B0228D2
:1017A000F6D966E00027C4F2472700203866FFF725
:1017B0002DFD022D05460BD1306880015ED5FFF767
:1017C00025FD401B02284FF00300F5D954E700BF68
:1017D000306880017FF54FAFFFF718FD401B0228EE
:1017E0004FF00300F4D947E70020C4F2472000215E
:1017F0000160FFF70BFD0546306880077FF507AFF6
:10180000FFF704FD401B02284FF00300F4D933E733
:10181000316F002821F001013167316F21F004019F
:1018200031674DD0FFF7F2FC054641F2883700BF23
:10183000306F800756D4FFF7E9FC401BB842F7D958
:1018400017E000BF3168002821F480313160316831
:1018500021F4802131604FD0FFF7D8FC054600BF4E
:10186000306880033FF5B5AEFFF7D0FC401B64281D
:10187000F6D9032002B0BDE8F08100BF04F11C05D9
:101880002FCD08430021CFF6FF7140EA821001EB13
:10189000C3316FF30F0140EA056008437060012017
:1018A0003866FFF7B3FC0446306880013FF5E3AECD
:1018B000FFF7ACFC001B02284FF00300F4D9DBE675
:1018C000FFF7A4FC054641F2883700BF306F800760
:1018D00008D5FFF79BFC401BB8424FF00300F5D939
:1018E000CAE600BFB8F1000F7FF497AE306C20F06D
:1018F0008050306491E600BFFFF788FC054600BFCA
:10190000306880037FF565AEFFF780FC401B6428DC
:101910004FF00300F4D9AFE670B558B1D0F824C049
:101920000446BCF1000F07D00021216104F114012D
:1019300008E000BF012070BD6168B1F5827F03D06F
:1019400004F11C0100220A600025A562616D4FF0C0
:10195000000E39B92046256500F03EF8D4E909C1EA
:1019600001F4005E02226265D4E90023D4E9020199
:10197000166803F4827326F04006166000F40440F3
:101980001844236901F40061084403F0020163690B
:10199000084403F00101A369E669084403F40071F7
:1019A000084406F03801266A084406F0800108431E
:1019B00040EA0E001060042000EA13400CF0100111
:1019C00008445060D06920F40060D0610120A56512
:1019D0006065284670BD00002DE9F04385B0002405
:1019E000C4F202040068A4F55041884202D005B058
:1019F000BDE8F0834FF0000843F63000CDF80080DA
:101A0000C4F2020041696D4641F48051416141696F
:101A1000022701F4805100910099CDF800800168FF
:101A20004FF0030941F0010101600068052600F054
:101A30000100009000982020009020462946CDE922
:101A40000177CDF80C900496FFF7FCFAC0208DE8E2
:101A50008103204629460496FFF7F4FA05B0BDE855
:101A6000F0830000411E0020B0EB116F1CBF01206D
:101A700070474EF21002CEF2000251604EF6235132
:101A8000CEF20001F0230B700721906011607047C7
:101A90007047000070470000B0B5C26B012A04BF58
:101AA0000220B0BD01F108053CCDD1E900CE23F400
:101AB0007C5322F470521A432EF4F0431A432CF450
:101AC000E0431A4324F4C0431A432A43C96922F469
:101AD00080420368114359640021C1630846B0BDC8
:101AE00010B5C26B012A4FF002024ED002640268A8
:101AF000D2F804E0D2F808C00C682EF0700323433B
:101B000041F2FF74C4F20004A24253600EDC40F2C2
:101B1000FF73C4F200039A4216DCB2F1804F2BD05F
:101B200040F20043C4F2000324E000BF40F2FF3360
:101B3000C4F201039A4213DC41F60003C4F200032D
:101B40009A4219D0002313E040F60003C4F20003C8
:101B50009A4211D040F60043C4F200030AE000BFED
:101B600044F20003C4F201039A4205D040F200435C
:101B7000C4F201039A4204D149682CF0800319434E
:101B80009160012100220164C263104610BD000073
:101B9000002804BF0120704710B50446006C20B92E
:101BA0000020E063204600F013F802202064206843
:101BB000211D01F075F8012060666064A064E06496
:101BC00020656065A065E06520662064002010BD8A
:101BD00080B582B000680021C4F2010188421CBFB8
:101BE00002B080BD0020019043F64400C4F2020020
:101BF0000168002241F0010101600068002100F04D
:101C00000100019001981B20FFF780FB1B2002B010
:101C1000BDE88040FFF76ABB80B5C26B012A4FF078
:101C2000020200F0BF800264D0F800C04FF6777265
:101C3000DCF8083023EA0202CCF808200B684F2BAE
:101C400028DC1F2B44DD202B45D0302B43D0402BEC
:101C500040F0AA80D1F804E0C968DCF82030DCF854
:101C6000202022F00102CCF82020DCF8182022F0FD
:101C7000F00242EA011123F00A0242EA0E02CCF815
:101C80001810CCF82020DCF8081041F0470121F0B2
:101C9000300180E06F2B27DDB3F5005F48D0B3F54E
:101CA000805F7AD0702B40F07F80D1E901E3C96872
:101CB000DCF8082043EA0E0322F47F4243EA0121C4
:101CC0001143CCF80810DCF8081041F0770162E00D
:101CD0000BB1102B68D1DCF8081021F0700119430A
:101CE00041F0070157E000BF502B35D0602B5BD18E
:101CF000D1F804E0C968DCF8203023F01003CCF8F8
:101D00002030DCF81830DCF8202023F4704322F077
:101D1000A00243EA013142EA0E12CCF81810CCF8C6
:101D20002020DCF8081041F0670121F0100132E0BA
:101D3000D1E901E3C968DCF8082043EA0E0322F484
:101D40007F4243EA01211143CCF80810DCF8081067
:101D500041F480411FE000BFD1F804E0C968DCF81D
:101D60002030DCF8202022F00102CCF82020DCF822
:101D7000182022F0F00242EA011123F00A0242EA9E
:101D80000E02CCF81810CCF82020DCF8081041F036
:101D9000570121F02001CCF8081000220121016434
:101DA0000021C163104680BD0122F7E770470000A3
:101DB00010B5016804460869800744BFC8685FEA37
:101DC000807039D40869400744BFC8685FEA407032
:101DD0003ED40869000744BFC8685FEA007045D474
:101DE0000869C00644BFC8685FEAC0604AD4086991
:101DF000C0071CBFC8685FEAC07051D108690006FF
:101E000044BFC8685FEA006052D40869400644BF16
:101E1000C8685FEA406053D40869800646BFC86856
:101E20005FEA806010BD6FF0200220460A61BDE8C5
:101E30001040FFF72FBE00BF6FF0020008610120C5
:101E4000E0618869800743D02046FFF7AFFF45E097
:101E50006FF0040008610220E061886910F4407F9F
:101E600040D02046FFF7A2FF42E000BF6FF008001D
:101E700008610420E061C86980073DD02046FFF773
:101E800095FF3FE06FF0100008610820E061C8692D
:101E900010F4407F3AD02046FFF788FF3CE000BFB7
:101EA0006FF001000861204600F010FC2168A5E7F2
:101EB0006FF0800008612046FFF7EAFD2168A4E783
:101EC0006FF040000861204600F002FC2168A3E7A3
:101ED000204600F001F9204600F0F8FA21680020C1
:101EE000E0616FE7204600F0F7F8204600F0EEFAD8
:101EF00021680020E0616CE7204600F0EDF8204604
:101F000000F0E4FA21680020E06169E7204600F073
:101F1000E3F8204600F0DAFA21680020E06166E785
:101F2000F0B5C36B012B04BF0220F0BD4FEAB20233
:101F3000032A00F2CB80DFE802F00335699D00BF81
:101F4000026840F20046136A42F4806423F0010301
:101F50001362136AD2F804E0D2F818C08D6823F037
:101F60000203C4F20106B44243EA050305D1CD6879
:101F700023F00C0325F004052B430D68B44207D170
:101F8000D1E905462EF4407E44EA0E0444EA060EEA
:101F90002CF073062E43C2F804E096614968516341
:101FA0008DE000BF026840F20045136A42F480648D
:101FB00023F010031362136AD2F804E0D2F818C0B9
:101FC0008E6823F02003C4F20105AC4243EA0613F5
:101FD00007D1CE686FF0400723F0C00307EA06166A
:101FE00033430E68AC4207D1D1E905542EF4406763
:101FF00047EA850747EA840E2CF4E64747EA0627B6
:10200000C2F804E097614968916358E0026840F2C1
:102010000045136A42F4806423F480731362136AE8
:10202000D2F804E0D2F81CC08E6823F40073C4F226
:102030000105AC4243EA062307D1CE6840F2FF47D0
:10204000360223F44063BE4333430E68AC4207D1EB
:10205000D1E905542EF4405747EA051747EA041E14
:102060002CF073073743C2F804E0D7614968D163A5
:1020700025E000BF026840F20047136A42F4806620
:1020800023F480531362D2F820E05368D4690D68BA
:10209000D1F808C0C4F20107BE4204D14E6923F44E
:1020A000804343EA861324F4E64646EA0526536055
:1020B000D6612EF40057496847EA0C3311640021B9
:1020C00013620022C2630846F0BD00BF0121002256
:1020D000C2630846F0BD000070470000002804BF3E
:1020E0000120704710B50446006C20B90020E06361
:1020F000204600F013F8022020642068211D00F023
:10210000CFFD012060666064A064E06420656065C6
:10211000A065E06520662064002010BD70470000C7
:1021200041B108290ED0042914BF00F1500200F17A
:10213000480209E0426C012A1CBF0120704700F1EF
:10214000440211E000F14C021268012A1CBF012078
:102150007047082906D0042914BF00F1500200F18D
:10216000480201E000F14C02022313604FEAB10380
:10217000032B4FF001026FD845F6407C0068C0F693
:10218000000C5CF823C0C36801F01F0143EA0C0394
:10219000C360036A02FA01F123EA01020262026AE1
:1021A000114341F2FF72C4F20002904201620FDC5F
:1021B00040F2FF71C4F2000188421BDCB0F1804F95
:1021C0003ED040F20041C4F20001884238D045E0E0
:1021D00040F2FF31C4F20101884219DC41F60001EE
:1021E000C4F2000188422BD00021C4F201018842D0
:1021F0001AD033E040F60001C4F2000188421FD03B
:1022000040F60041C4F20001884219D026E000BF28
:1022100044F20001C4F20101884211D040F20041B1
:10222000C4F20101884219D1416C40F2004340F4EC
:102230008062C4F2010341F400419A4241640DD12D
:10224000816801F00701062904BF0020704701687A
:10225000002241F00101016010467047016841F021
:1022600001010160002070472DE9F041C36B012B93
:1022700004BF0220BDE8F0814FEAB202032A00F257
:10228000FD80DFE802F0033F7FBF00BF036840F23C
:1022900000471A6A43F4806522F001021A621C6A40
:1022A0001A46D3F804E052F818CF8E6824F00204DE
:1022B000C4F20107BD4244EA060405D1CE6824F009
:1022C0000C0426F0040634430E68BD4207D1D1E960
:1022D00005572EF4407E45EA0E0545EA070E2CF020
:1022E00073073743C3F804E09F614F6809695F6370
:1022F0001C629F6947F008079F619F6927F00407E8
:102300009F61B1E0036840F200481A6A43F48065B7
:1023100022F010021A621C6A1A46D3F804E052F83E
:1023200018CF8F6824F02004C4F20108454544EA20
:10233000071407D1CF686FF0400624F0C00406EA06
:10234000071634430F68454507D1D1E905562EF4E9
:10235000406E4EEA850545EA860E2CF4E64646EACE
:102360000727C3F804E09F614F6809699F631C62F7
:102370009F6947F400679F619F6927F480679F61A9
:1023800071E000BF036840F200481A6A43F48065B8
:1023900022F480721A621C6A1A46D3F804E052F8DA
:1023A0001CCF8F6824F40074C4F20108454544EA48
:1023B000072408D1CF6840F2FF463F0224F440646E
:1023C00027EA060634430F68454507D1D1E905568B
:1023D0002EF4405E4EEA051545EA061E2CF0730603
:1023E0003743C3F804E0DF614F680969DF631C62AB
:1023F000DF6947F00807DF61DF6927F00407DF6165
:1024000032E000BF036840F200451A6A43F4806777
:1024100022F480521A621A46D3F820C05C6852F83F
:102420001CEFD1F800808E68C4F20105AF4204D1E0
:102430004D6924F4804444EA85142CF4005747EA9B
:1024400006372EF4E64646EA08265C60DE614E68F2
:1024500009691E641F62DF6947F40067DF61DF6995
:1024600027F48067DF6109021368194311600021B6
:102470000022C2630846BDE8F08100BF01210022AE
:10248000C2630846BDE8F081002804BF0120704700
:1024900010B50446006C20B90020E063204600F02F
:1024A00013F8022020642068211D00F0F9FB0120B0
:1024B00060666064A064E06420656065A065E065B6
:1024C00020662064002010BD7047000010B540F267
:1024D000A800C2F20000D0E9001201F1320332324A
:1024E000B3F57A7F0360426005D38268A1F2B6310A
:1024F0000160511C816040F2D404C2F20004204605
:1025000001F084FC2046BDE8104001F02FBC000023
:1025100041B108290ED0042914BF00F1500200F186
:10252000480209E0426C012A1CBF0120704700F1FB
:10253000440211E000F14C021268012A1CBF012084
:102540007047082906D0042914BF00F1500200F199
:10255000480201E000F14C0202231360006801F020
:102560001F010122036A02FA01F123EA0102026259
:10257000026A114341F2FF72C4F20002904201620A
:102580000CDC40F2FF71C4F20001884214DCB0F1AF
:10259000804F37D040F2004116E000BF40F2FF31DB
:1025A000C4F20101884215DC41F60001C4F20001C9
:1025B000884227D0002115E040F60001C4F2000156
:1025C00088421FD040F60041C4F20001884219D071
:1025D0001FE000BF44F20001C4F20101884211D0A3
:1025E00040F20041C4F20101884212D1416C40F234
:1025F000004340F48062C4F2010341F400419A4276
:10260000416406D1816801F00701062904BF00205A
:102610007047016841F0010101600020704700002F
:1026200010B5026801F01F0E4FF0010C146A0CFA8D
:102630000EF324EA0303136240F20043D2F820C0F1
:1026400042F48064C4F201039C42C2F820C009D164
:10265000136A41F21114234204D1136A40F2444434
:1026600023420FD0136A41F21114234213D1136A8B
:1026700040F2444423420ED1136823F00103136057
:1026800009E000BF536C23F400435364136A41F222
:1026900011142342EBD008290CD0042910D00029B2
:1026A00014BF00F1500100F14401012200200A6032
:1026B00010BD00BF00F14C01012200200A6010BDD6
:1026C00000F14801012200200A6010BD704700009F
:1026D00070470000002804BF0120704710B5044671
:1026E000006C20B90020E063204600F01DF8242093
:1026F00020642068C16821F40051C160204600F0C8
:102700006DFB2068016921F490410161416921F06C
:102710002A014161C16841F40051C16000202021BB
:10272000A0642164616410BD80B586B0016841F287
:102730000000C4F20100814202D006B080BD00BF9B
:10274000002143F630020191C4F20202536900F500
:10275000744043F010035361536903F01003019375
:10276000019B0191136843F002031360126802F0A9
:1027700002020192019AC02201920222CDE90221B5
:10278000032104910721059101A9FEF75BFC06B026
:1027900080BD0000FEE70000B0B58EB0002501A8A6
:1027A00024210D95FDF746FE40F2943042F20001DF
:1027B0000123C2F20000C4F201010124C0F600733B
:1027C0004FF480320562C0E90A35056380E82600CF
:1027D000C0E90354C0E90554C461FEF759F9002863
:1027E00018BFFEF703F840F294300325C2F2000050
:1027F0000AA9CDE90A540C94FEF7ACF8002818BFDA
:10280000FDF7F4FF012002900020012103900990C0
:10281000C0F20F01CDE90600049040F2943002248A
:102820000891C2F2000001A901950594FDF7E4FFAB
:10283000002818BFFDF7DAFF0420CDE9010440F2BB
:102840009430C2F2000001A9FDF7D6FF002818BF9E
:10285000FDF7CCFF0EB0B0BD80B540F26C4046F243
:102860000041C2F20000C4F200010322002380E80C
:102870000E0000F10C014FF4202C4FF4801E81E873
:102880000850C0E90633C0E90833C0E90A33FEF74F
:102890000FFB002808BF80BDBDE88040FDF7A6BF44
:1028A0002DE9F04786B0002743F6300005970097E2
:1028B000C4F20200016840F6000841F00401016022
:1028C0000168C4F2020801F0040100910099009728
:1028D0000168012241F08001016001684FF48046E7
:1028E00001F080010091009900970168012441F0F6
:1028F00001010160016801F0010100910099009758
:10290000016841F00201016000684FF4804100F06D
:102910000200009000984046FEF772FC404648F6E0
:1029200002410022FEF76CFCA8F500652846042150
:1029300001224FF00409FEF763FCCDE9016401AE0A
:1029400040463146CDE90347FEF77CFB4FF400409B
:1029500001A991C1404631460497FEF773FB02205E
:10296000CDE9010403904FF0030A40463146CDF80B
:1029700010A0FEF767FB28463146CDE90194CDE96A
:102980000347FEF75FFB4FF4406001A981E8910423
:1029900040463146FEF756FB06B0BDE8F087000022
:1029A00080B540F2A44043F20001C2F20000C4F23C
:1029B00001014FF48272002380E80E0000F114013F
:1029C0004FF4007C4FF0380E81E808500A21C0E92E
:1029D0000333C0E90833C0E90A31FEF79DFF002840
:1029E00008BF80BDBDE88040FDF700BFB0B59CB01A
:1029F000002540F20050C4F201050021C2F200009F
:102A000042F208021691CDE914111191CDE90F118E
:102A1000CDE90D11CDE90B11CDE90911CDE9071172
:102A2000CDE90511CDE90311CDE90111C0E900514E
:102A3000C0E90212C0E904118161FFF7A9F800287A
:102A400018BFFDF7D3FE4FF48050139040F20050B2
:102A5000C2F2000013A9FFF7DFF8002818BFFDF746
:102A6000C5FE40F20050C2F20000FFF70DFD002845
:102A700018BFFDF7BBFE40F20050C2F20000FFF7A6
:102A80002DFB002818BFFDF7B1FE40F200500024D6
:102A9000C2F2000010A9CDE91044FFF721F8002888
:102AA00018BFFDF7A3FE6020CDE909040420CDE99D
:102AB0000D0440F20050C2F2000009A90022CDE945
:102AC0000B440F94FFF7D0FB002818BFFDF78EFED4
:102AD00040F20050C2F2000009A90422FFF7C4FB33
:102AE000002818BFFDF782FE41F6D4400A9040F25C
:102AF00000500024C2F2000009A9082209940D9494
:102B0000FFF70EFA002818BFFDF770FE0594CDE917
:102B10000344CDE90144089440F200544FF40050BE
:102B2000C2F20004069001A92046FEF7B5FF002876
:102B300018BFFDF75BFE2068A84201D01CB0B0BDF5
:102B4000002043F630011790C4F202010A6842F0F7
:102B500001020A60096801F00101179117994FF409
:102B6000407117910221CDE918101A9001201B9095
:102B700005F5803017A9FEF765FA1CB0B0BD00005E
:102B800080B540F2685041F20001C2F20000C4F288
:102B9000010100234FF00C0C4FF4E13280E80E00ED
:102BA000C0E90333C0E905C3C361FFF793FD002803
:102BB00008BF80BDBDE88040FDF718BEFEE70000FD
:102BC000FEE700007047000070470000FEF724BBDE
:102BD000B0B592B0002443F64000CDE90A44CDE9F7
:102BE00008440594CDE90344CDE901440094C4F2BE
:102BF00002000168022541F080510160006800F088
:102C000080500090009847F200000094C4F2000049
:102C1000016841F4804101600068A82100F480400F
:102C200000900098012006904FF4803007904FF4F8
:102C300080000D9004200E90119006A80C95CDE90F
:102C40000F15FEF7ADFC28B1EFF3108072B600BF90
:102C5000FEE700BF0F20CDE901054FF4A05004901E
:102C60004FF48050059001A805210394FEF78AFBDC
:102C700020B1EFF3108072B6FEE700BF12B0B0BD16
:102C80004EF68851CEF20001086840F470000860EA
:102C90007047000040F20050C2F20000FFF788B811
:102CA00010B540F6FF3E0368C4F2000E40F2004C3F
:102CB0007045C4F2010C27DCB0F1804F31D040F2F6
:102CC0000042C4F2000290422BD040F60002C4F24F
:102CD0000002904225D041F6FF72C4F200029042F9
:102CE00029DC70453CDCB0F1804F5FD040F20042FF
:102CF000C4F20002904259D040F60002C4F2000231
:102D0000904253D056E000BF40F60042C4F20002A9
:102D1000904206D0604504D00022C4F201029042E5
:102D2000D9D14A6823F07003134341F6FF72C4F20D
:102D300000029042D5DD43F6FF72C4F201029042D8
:102D400022DC42F20002C4F2000290422ED00022A5
:102D5000C4F20102904229D0604527D02AE000BF8A
:102D600040F60042C4F2000290421FD041F6000239
:102D7000C4F20002904219D041F60042C4F20002AF
:102D8000904213D016E000BF44F20002C4F20102E8
:102D900090420BD044F60002C4F20102904205D0EA
:102DA00044F20042C4F20102904203D1CA6823F403
:102DB0004073134323F080024B69D1F800E08C6824
:102DC0001A430260C46240F48062C0F828E06245A1
:102DD00004BF096901630121416110BD10B50446BA
:102DE0000068D4E902C22369016921F4405111430A
:102DF0000161626943EA0C01E3691143C268194346
:102E000049F20C639A431143C1604169A26921F4FC
:102E1000407141F20043114340F48062C4F2010367
:102E20009A42416102D1FEF771FB01E0FEF75AFBC5
:102E3000E16963681922B1F5004FA0FB02011FD1BF
:102E40005A00DB0FFDF76EFA48F21F51C5F2EB1185
:102E5000A0FB01235A096FF0630302FB0300322336
:102E600003EBC000A0FB01014FF4F87000EA111061
:102E700000EB0210C1F3421122680843906010BDBC
:102E80009A009B0FFDF74EFA48F21F51C5F2EB1165
:102E9000A0FB01235A096FF0630302FB03003223F6
:102EA00003EB0010A0FB0101F02000EA511000EB41
:102EB0000210C1F3431122680843906010BD000066
:102EC000FEE7000010B540F2CC04C2F20004207806
:102ED000BFF35F8FC00707D040F25410C2F200006A
:102EE0000021C4E9020110BD40F2CC00C2F2000092
:102EF00002F00AFC0028EFD040F25410C2F20000A9
:102F00004FF48471FDF796FA40F2CC00C2F2000053
:102F100002F028FCE0E700002DE9F04140F2DC354A
:102F2000C2F2000562A1284601220023002701F019
:102F30005FF945F61860C0F6000000F1080129604D
:102F40002830294641F8780F45F63070C0F6000069
:102F5000083005F17C0240F2000883C243F2196098
:102F6000C0F60008C0F6000029464246C5E92277AF
:102F7000FDF75BFA40F2F824C2F2000440F21C03B1
:102F80004EA2C2F200032046294600F07DFE40F822
:102F9000607F214641F8680FC4E91B1745F60461BC
:102FA000C0F60001083123462160214643F8807FA6
:102FB0002646204641F8787F46F8843F234640F86D
:102FC000747F224643F88C1F42F87C7FC4E924308A
:102FD00043F6E540C4F89820C0F60000214642467A
:102FE0006766C4F88860FDF720FA40F25C26C2F2FA
:102FF000000640F2100332A2C2F200033046294616
:1030000000F042FE45F6D850C0F6000000F108017D
:1030100024303246C6E91807304642F8807F3346EE
:1030200040F8787F43F8842F32463160314642F8C9
:103030008C0F06F1760041F87C7FC6E9242043F22C
:103040004530C6F89810C0F6000031464246B766D3
:10305000C6F88830FDF7E9F945F6686140F290045A
:1030600043F23D10C0F60001C2F20004C0F60000B9
:1030700001F10805C4E900502046102100F0FCFED3
:1030800043F26910C0F60000E060204640F8085F97
:10309000112100F0F1FE43F28912C0F6000244F85B
:1030A000105F204600216260BDE8F04101F002B8E7
:1030B0006861726477617265000000006463760085
:1030C0006463000045F6686140F23C10C0F6000100
:1030D000C2F2000043F609120831C0F60002016096
:1030E0001121426000F0C8BE40F24411C2F200015A
:1030F0000023B220C1E9000344F6E12040F20002BF
:10310000C0F60000C0F600028B60FDF78EB902F039
:1031100039B980B5AFF30080BDE8804002F0F8B95E
:1031200080B5AFF30080BDE8804002F0F1B980B512
:10313000AFF30080BDE8804002F0EAB940F2F82029
:10314000C2F2000040F25C2200F19401C2F20002DF
:103150009830C2F8900040F23410C2F88810C2F2E1
:10316000000003214160704740F2F8200021C2F2C4
:103170000000C4F24011C0F8801040F25C20C2F29E
:10318000000001214166704740F2F820C2F20000C1
:10319000D0F894109FED0E1A91ED000AB4EE410A9A
:1031A000F1EE10FA04DD9FED090A80ED200A704768
:1031B0009FED081AB4EE410AF1EE10FAA8BF70476D
:1031C000B2EE080A80ED200A704700BF0000000040
:1031D00066663E4166663EC110B5342040F200543A
:1031E000C4F201000021C2F20004016041602046E7
:1031F0000021FFF78DF920460421FFF789F940F6F9
:103200000000C4F2020002210122BDE81040FDF7D7
:10321000F7BF000010B53420C4F2010000210160A6
:10322000416040F60000C4F2020002210022FDF7D6
:10323000E7FF40F20054C2F2000420460021FFF7ED
:10324000EFF920460421BDE81040FFF7E9B900007E
:1032500034200129C4F2010004DB01600021416037
:10326000704700BF00224942026041607047000081
:1032700080B590F87410002918BF00F003F8012001
:1032800080BD0000B0B5856D04462DB16868FFF7BC
:10329000F9FFED68002DF9D1206841682046BDE8AE
:1032A000B0400847B0B5C56C044635B168680168E0
:1032B00049688847ED68002DF8D1A46D002C08BF3F
:1032C000B0BD00BF6068FFF7EDFFE468002CF9D1E6
:1032D000B0BD0000B1F90420B1F906309A4213DA0A
:1032E00091ED020A9FED091AB4EE410AF1EE10FACF
:1032F0000ADDD1E90121C266826E01670121002A3F
:1033000008BF8166084670470020704700010038FA
:1033100010B50446D0F88800016804F1600000F0A0
:1033200059FAD4F8901009680968002918BF0846AE
:10333000E06710BD80B500F005F8BDE8804002F000
:10334000E7B8000010B545F6E061C0F600010831AD
:10335000024642F8481F916831B3D1E900E3D1F841
:1033600008C0AEF1010E6345C1F800E00AD09342F7
:103370000CD0944510D0D0E91512D160416D0A618E
:103380000EE000BF0022C1E9012209E0426D4A605F
:103390000021116104E000BF826D8A600021D160CC
:1033A0000021C0E91411816545F64C61C0F60001A9
:1033B0000831016045F6D061C0F60001C26A01F132
:1033C000080C034643F824CF12B3D2E90041D2F8E7
:1033D00008E0013C7145146008D099420AD09E452E
:1033E0000ED0D0E90C12D160016B06E00021C2E9D9
:1033F000011109E0016B516000220A6104E000BF85
:10340000416B91600022CA600021C0E90B11416349
:10341000024642F804CF9168002908BF10BDD1E9E7
:103420000043D1F808C0013C63450C600ED09342C4
:1034300014D094451CD0D0E90412D16001690A610E
:103440000021C0E90311416110BD00BF0022C1E9A4
:1034500001220021C0E90311416110BD02694A60E7
:10346000002111610021C0E90311416110BD00BFBD
:1034700042698A600021D1600021C0E903114161E5
:1034800010BD00004A68026791ED021A91ED040A2E
:10349000B4EE410AF1EE10FA0EDD91ED031AB4EE2E
:1034A000410AF1EE10FA07DAD1E90223C0E9182344
:1034B000096941670120704700207047D0F88810E3
:1034C000C26E0B68116893ED002A91ED010AB4EE0B
:1034D000402AF1EE10FAB0EE401A0ADA91ED003A05
:1034E000B0EE421AB4EE432AF1EE10FAD8BFB0EEB5
:1034F000431A90ED1D2A31EE423AB5EE403AF1EE14
:1035000010FA09DD90ED1C4AB4EE443AF1EE10FADF
:10351000A8BF34EE021A0FE0B5EE403AF1EE10FA11
:103520000EDA90ED1C4AB1EE433AB4EE434AF1EEA6
:1035300010FAD8BF32EE441AB0EE412A80ED1D1ABF
:10354000B4EE402AF1EE10FA0ADA91ED000AB4EE78
:10355000402AF1EE10FACCBF0021022101E000BFA9
:103560000321D0F8902012681268002A18BF114673
:10357000C167704710B582B0044601A801F068FA2F
:10358000D4F8840040B3D0E900328168013B8A421C
:1035900003600DD004F17C039A420DD0994211D002
:1035A000D4E92201C860D4F8880001610FE000BFAF
:1035B0000021C0E901110AE0D4F888104160002020
:1035C000086104E0D4F88C1081600020C8600020FD
:1035D000C4E92100C4F88C0001A801F061FA02B02E
:1035E00010BD0000B0B582B001AD0446284601F020
:1035F0002FFA04F17C00122100F0DCFC284601F0D7
:103600004FFA02B0B0BD000080B500F005F8BDE88B
:10361000804001F07DBF000010B545F61861C0F68E
:10362000000101F108022831816745F6F061C0F61A
:10363000000101F10803D0F884100260024642F84C
:103640007C3F49B3D1E900E3D1F808C0AEF1010EE7
:103650006345C1F800E00BD093420DD0944511D0E2
:10366000D0E92212D160D0F888100A610FE000BFC3
:103670000022C1E901220AE0D0F888204A60002136
:10368000116104E0D0F88C208A600021D160002113
:10369000C0E92111C0F88C1045F6C061C0F60001E8
:1036A0000831024642F8601F916829B3D1E900E36E
:1036B000D1F808C0AEF1010E6345C1F800E009D0B1
:1036C00093420BD094450FD0D0E91B12D160C16E4C
:1036D0000A610DE00022C1E9012209E0C26E4A60E0
:1036E0000021116104E000BF026F8A600021D160F7
:1036F0000021C0E91A11016745F64C61C0F60001CE
:103700000831016045F6D061C0F60001C26A01F1DE
:10371000080C034643F824CF12B3D2E90041D2F893
:1037200008E0013C7145146008D099420AD09E45DA
:103730000ED0D0E90C12D160016B06E00021C2E985
:10374000011109E0016B516000220A6104E000BF31
:10375000416B91600022CA600021C0E90B114163F6
:10376000024642F804CF9168002908BF10BDD1E994
:103770000043D1F808C0013C63450C600ED0934271
:1037800014D094451CD0D0E90412D16001690A61BB
:103790000021C0E90311416110BD00BF0022C1E951
:1037A00001220021C0E90311416110BD02694A6094
:1037B000002111610021C0E90311416110BD00BF6A
:1037C00042698A600021D1600021C0E90311416192
:1037D00010BD0000B0B50446806804281ED80D4610
:1037E000DFE800F0600409455E0000BF6068012862
:1037F00014D10220A06095ED000A94ED041AE18A2C
:1038000021EE000AB5EE400A04F10C00F1EE10FAC8
:10381000A18207DDB6EE001A0BE000BF00252846A6
:10382000B0BD00BFB5EE400AF1EE10FA03DABEEE0D
:10383000001A30EE010ABDEEC01AB4F90E2011EEE6
:10384000101A8A42E1820BDDB0F9002001EE102A45
:10385000B8EEC11AB4EE410AF1EE10FA02DC92B2EF
:103860001146E28209B2FFF7B7FC0320A06060684E
:10387000012811D195ED000A94ED041AE18A21EE98
:10388000000AB5EE400A04F10C00F1EE10FAA18234
:103890000CDDB6EE001A10E00420A060FFF7BAFCC1
:1038A0000120A06001252846B0BD00BFB5EE400A4A
:1038B000F1EE10FA03DABEEE001A30EE010ABDEEA8
:1038C000C01AB4F90E1011EE102A9142E28211DDF5
:1038D000B0F9001001EE101AB8EEC11AB4EE410AA8
:1038E000F1EE10FA08DD0025114609B2FFF7B0FC31
:1038F0002846B0BD032501E089B20225E18209B264
:10390000FFF7A6FC2846B0BD40F20050C2F200000E
:103910000821FEF705BC000001207047B0B540F259
:10392000CC05C2F200052879BFF35F8FC00703D032
:1039300005F11C00B0BD00BF2C1D204601F0E4FEC7
:103940000028F5D045F64C60C0F6000045F6107230
:1039500008302946C0F6000241F81C0F0832C1E9C0
:10396000012145F6B062C0F6000246F213030020C2
:103970000832C0F60003C1E90300C1E90500C1E94E
:103980000700C1E90921C1E90B00C1E90D00C1E946
:103990000F30486400F0D6FF50B945F6CF7045F6B9
:1039A000E471C0F60000C0F600018D2200F0C2FFF5
:1039B00043F6A93040F2000205F11C01C0F60000F8
:1039C000C0F60002FCF731FD204601F0CBFE05F108
:1039D0001C00B0BDB0B582B0C56904460220606469
:1039E0003DB100BF6868FFF7F5FF68B1ED68002DD5
:1039F000F8D1206801682046884748B101256564F0
:103A0000284602B0B0BD00BF45F6E4719D2002E03B
:103A100045F6E4719F20C0F6000145F6B37245F605
:103A2000D473CDE90010C0F60002C0F600036FF0B9
:103A300001000021002500F07FFC284602B0B0BD47
:103A40002DE9F041044645F64C60C0F60000083010
:103A5000206045F61070C0F600000830274647F891
:103A6000040F45F6B060C0F600000830254640F26D
:103A7000CC08002645F8240FC2F20008C4E902462B
:103A8000C4E90466C4E906662662C4E90A46C4E9D4
:103A90000C66C4E90E613AB1916B42A0226466647F
:103AA00001F05AF8064605E0FFF738FF08F11C0060
:103AB000C4E91006E06B314601F04EF8E16A79B1D5
:103AC000D1E900638A68013E93420E600AD0AB429E
:103AD0000CD0AA4210D0D4E90C23DA60226B08E0A3
:103AE000A06315E00022C1E9012209E0226B002356
:103AF0004A60136104E000BF626B00238A60D360F8
:103B00000022C4E90D202846C4E90B2200F03AFC4B
:103B100008F11001284600F035FC50B945F6CF7089
:103B200045F6E471C0F60000C0F60001C42200F0C2
:103B300001FFE268206C00F118010AB3D2E90056D7
:103B40009368013D9E4215600AD0BE420CD0BB4234
:103B500010D0D4E90423DA60226913610EE000BFBB
:103B60000023C2E9013309E02369536000221A618E
:103B700004E000BF636993600022DA6000222261E2
:103B8000C2691AB1026A0762D76003E00022C0E985
:103B90000777226162610868E160013008602046B1
:103BA000BDE8F0812E00000010B545F64C61C0F66E
:103BB00000010831016045F6D061C0F60001C26A1B
:103BC00001F1080C034643F824CF1AB3D2E90041AF
:103BD000D2F808E0013C7145146009D099420BD03D
:103BE0009E450FD0D0E90C12D160016B07E000BFF9
:103BF0000021C2E9011109E0016B516000220A6154
:103C000004E000BF416B91600022CA600021C0E95E
:103C10000B114163024642F804CF9168002908BFA6
:103C200010BDD1E90043D1F808C0013C63450C60E8
:103C30000ED0934214D094451CD0D0E90412D16028
:103C400001690A610021C0E90311416110BD00BF93
:103C50000022C1E901220021C0E90311416110BD28
:103C600002694A60002111610021C0E9031141612C
:103C700010BD00BF42698A600021D1600021C0E907
:103C80000311416110BD0000B0B50C46114622463B
:103C90001D46FFF7D5FE45F65861C0F60001083114
:103CA000016045F62071C064C565C0F60001E26C94
:103CB0000831034643F8481F0021002A04F1480256
:103CC0004165816504D0216D2365CB6003E000BFB1
:103CD000C4E91333416581651168026501311160E2
:103CE000B0BD000080B545F65861C0F6000108314E
:103CF000016045F6E061C0F6000101F10803016DC5
:103D0000024642F8483F29B3D1E900E3D1F808C0A0
:103D1000AEF1010E6345C1F800E009D093420BD02B
:103D200094450FD0D0E91512D160416D0A610DE0C4
:103D30000022C1E9012209E0426D4A6000211161BF
:103D400004E000BF826D8A600021D1600021C0E9DB
:103D500014118165BDE88040FFF726BF0268C16D80
:103D6000926810470268C16D9268104770B582B0C2
:103D700040F23414C2F2000461680546022906D1FB
:103D8000206820B9204600F0C3FA0120206001A875
:103D900000F052FE2868866A46B100BF706801686C
:103DA00009688847F668002EF8D12868696801EB31
:103DB000410200EB8200066C46B100BF70680168EA
:103DC00009688847F668002EF8D16968481CB0F188
:103DD000100218BF0246D4E900016A60022908BF38
:103DE000012809D0042908BF012805D001A800F046
:103DF00029FE02B070BD00BF204600F093FA0020FB
:103E0000206001A800F01EFE02B070BDB0B582B007
:103E100040F23414C2F20004D4E900120546042A28
:103E200008BF002903D0032A08BF002904D1204677
:103E300000F06EFA0120206001A800F0FDFD286866
:103E4000C56935B16868016809688847ED68002D63
:103E5000F8D16068032807D12068012804D12046E2
:103E600000F060FA0020206001A800F0EBFD02B035
:103E7000B0BD000001F04CBB70B582B00D460646E7
:103E800000F060FD50B945F6DD7045F6E471C0F60E
:103E90000000C0F60001752200F04CFD142001F076
:103EA00039FB45F6307104460020C0F600010831A8
:103EB000C4E90200206101A8C4E9001600F0C8FDB1
:103EC00040F2CC00C2F200000078BFF35F8FC00761
:103ED00058D0A5F1100005280ED245F28871C0F621
:103EE000000151F82000A168C9B94168D9B38168BF
:103EF0008460CC603BE000BF45F6A17045F6E471FC
:103F0000C0F60000C0F60001452200F013FD40F2AB
:103F10005410C2F20000FC30A1680029E5D0D1E9BC
:103F200000638A68013E93420E6009D0A3420BD021
:103F3000A2420FD0D4E90312D160E1680A610DE01A
:103F40000022C1E9012209E0E2684A600021116112
:103F500004E000BF22698A600021D1600021E16095
:103F600041680029C3D10021C0E90144E160216119
:103F70000168A0600131016001A800F091FD02B06C
:103F800070BD00BF40F2CC00C2F2000001F0BCFBEB
:103F900000289ED040F25410C2F200004FF4847109
:103FA000FCF748FA40F2CC00C2F2000001F0DAFB64
:103FB0008FE70000B0B582B0044601A80D4600F0BE
:103FC00047FD40F2CC00C2F200000078BFF35F8FE3
:103FD000C00757D0A5F1100005280DD245F2887111
:103FE000C0F6000151F82000A168C1B94168D1B301
:103FF00081688460CC603AE045F6A17045F6E471D2
:10400000C0F60000C0F60001452200F093FC40F22B
:104010005410C2F20000FC30A1680029E6D0D1E9BA
:1040200000538A68013D93420D6009D0A3420BD032
:10403000A2420FD0D4E90312D160E1680A610DE019
:104040000022C1E9012209E0E2684A600021116111
:1040500004E000BF22698A600021D1600021E16094
:1040600041680029C4D10021C0E90144E160216117
:104070000168A0600131016001A800F011FD02B0EB
:10408000B0BD00BF40F2CC00C2F2000001F03CFB2A
:1040900000289FD040F25410C2F200004FF4847107
:1040A000FCF7C8F940F2CC00C2F2000001F05AFB64
:1040B00090E7000070B582B00D46064600F042FC65
:1040C00050B945F6DD7045F6E471C0F60000C0F663
:1040D00000017C2200F02EFC142001F01BFA45F6B2
:1040E000307104460020C0F600010831C4E9020026
:1040F000206101A8C4E9001600F0AAFC40F2CC003F
:10410000C2F200000078BFF35F8FC00758D00F2DB8
:1041100010D840F2541105EB4500C2F2000101EB4A
:1041200080003C30A168C1B94168D1B38168846026
:10413000CC603AE045F6A17045F6E471C0F60000A7
:10414000C0F600015C2200F0F5FB40F25410C2F210
:104150000000FC30A1680029E6D0D1E900638A683C
:10416000013E93420E6009D0A3420BD0A2420FD071
:10417000D4E90312D160E1680A610DE00022C1E9CF
:10418000012209E0E2684A600021116104E000BFF9
:1041900022698A600021D1600021E1604168002924
:1041A000C4D10021C0E90144E16002682161511CD1
:1041B0000160A06001A800F073FC02B070BD00BFF8
:1041C00040F2CC00C2F2000001F09EFA00289ED01E
:1041D00040F25410C2F200004FF48471FCF72AF947
:1041E00040F2CC00C2F2000001F0BCFA8FE7000000
:1041F000F0B581B016461A461D460446FFF720FC6E
:1042000045F6C450C0F600000830206045F6007046
:10421000C0F600000830274647F8600F0020C4E9C8
:104220001200C4E91400C4E91600C4E91940C4E945
:104230001B0084F87460F5B145F66C0145F2EC7230
:10424000C0F60001C0F600022846002301F08AF9FA
:1042500088B1816D002900F1540103D0C26DC7659A
:10426000D76003E00022C0E91677E266226708689B
:10427000A1660130086045F67C60C0F6000000F1E0
:104280000801216000F128012046A16701B0F0BDBE
:10429000FEDE000080B545F6C451C0F600010831CD
:1042A000016045F6C061C0F6000101F10803816EAE
:1042B000024642F8603F29B3D1E900E3D1F808C0D3
:1042C000AEF1010E6345C1F800E009D093420BD076
:1042D00094450FD0D0E91B12D160C16E0A610DE088
:1042E0000022C1E9012209E0C26E4A600021116189
:1042F00004E000BF026F8A600021D1600021C0E9A4
:104300001A110167BDE88040FFF74EBCFEF7CABF37
:1043100040F60000C4F202004FF480610122FCF775
:104320006FBF000040F60000C4F202004FF480614D
:104330000022FCF765BF000081B080B581B040F27B
:10434000B40CC2F2000CDCF800E00393BEF1000FE5
:1043500013D0002808D4DCF8043083420DDBDCF8ED
:1043600008300B408B4208D10DF10C0EDCF8003008
:1043700011467246CDF800E0984701B0BDE8804094
:1043800001B07047B0B50A68002A0FDD4D6845B12D
:1043900042692B465C6994421AD01BDCDB68002B17
:1043A000F8D135B18A688860D06006E04D68002D8C
:1043B000F8D10022C1E90100C26002610A6800F17F
:1043C000080C01320A600120CCF80010B0BD00BF1B
:1043D0000020B0BD84465CF808EFBEF1000F23D08A
:1043E000DEE90054DEF80820013D9442CEF800508A
:1043F00008D084420AD082420ED0D0E90325EA6078
:10440000C26807E00022CEE901220AE0C268002566
:10441000CEF80420156104E002690025CEF80820DA
:10442000D5604D680022026145B19D420CD01A69E9
:10443000D06002611861C3600BE000BF0022C1E9D7
:104440000100C0E9032204E000221861C0E9035220
:1044500048600868013008600120CCF80010B0BD49
:104460008168002908BF01F053B891E80C1063453A
:10447000A2F101020A600BD083420FD0844513D011
:10448000D0E90312D160C1680A6101F041B800BFF0
:104490000022C1E9012201F03BB800BFC2684A60B6
:1044A0000021116101F034B802698A600021D160F5
:1044B00001F02EB88168002908BF01F029B891E801
:1044C0000C106345A2F101020A600BD083420FD0A9
:1044D000844513D0D0E90312D160C1680A6101F0AC
:1044E00017B800BF0022C1E9012201F011B800BFD6
:1044F000C2684A600021116101F00AB802698A604D
:104500000021D16001F004B845F6C0628168C0F6B0
:10451000000208320029026008BF704791E80C10C1
:104520006345A2F101020A600ED0834214D0844593
:104530001CD0D0E90312D160C1680A610021C0E932
:1045400002110161704700BF0022C1E90122002170
:10455000C0E9021101617047C2684A60002111611F
:104560000021C0E902110161704700BF02698A6041
:104570000021D1600021C0E90211016170470000F3
:104580008168002908BF00F0C3BF91E80C106345A3
:10459000A2F101020A600BD083420FD0844513D0F0
:1045A000D0E90312D160C1680A6100F0B1BF00BF59
:1045B0000022C1E9012200F0ABBF00BFC2684A601F
:1045C0000021116100F0A4BF02698A600021D1605E
:1045D00000F09EBF45F6D0628168C0F60002083246
:1045E0000029026008BF704791E80C106345A2F1F2
:1045F00001020A600ED0834214D084451CD0D0E959
:104600000312D160C1680A610021C0E90211016191
:10461000704700BF0022C1E901220021C0E9021158
:1046200001617047C2684A60002111610021C0E940
:1046300002110161704700BF02698A600021D160E8
:104640000021C0E902110161704700008168002962
:1046500008BF00F05DBF91E80C106345A2F10102B4
:104660000A600BD083420FD0844513D0D0E90312E7
:10467000D160C1680A6100F04BBF00BF0022C1E9F0
:10468000012200F045BF00BFC2684A6000211161ED
:1046900000F03EBF02698A600021D16000F038BF9F
:1046A00045F6E0628168C0F6000208320029026027
:1046B00008BF704791E80C106345A2F101020A603F
:1046C0000ED0834214D084451CD0D0E90312D160AF
:1046D000C1680A610021C0E902110161704700BF91
:1046E0000022C1E901220021C0E9021101617047E5
:1046F000C2684A60002111610021C0E90211016114
:10470000704700BF02698A600021D1600021C0E9C2
:1047100002110161704700008168002908BF00F0A4
:10472000F7BE91E80C106345A2F101020A600BD0BC
:1047300083420FD0844513D0D0E90312D160C16801
:104740000A6100F0E5BE00BF0022C1E9012200F0CD
:10475000DFBE00BFC2684A600021116100F0D8BE10
:1047600002698A600021D16000F0D2BE45F6F06295
:104770008168C0F6000208320029026008BF704755
:1047800091E80C106345A2F101020A600ED0834249
:1047900014D084451CD0D0E90312D160C1680A61ED
:1047A0000021C0E902110161704700BF0022C1E988
:1047B00001220021C0E9021101617047C2684A600C
:1047C000002111610021C0E902110161704700BFA1
:1047D00002698A600021D1600021C0E902110161F3
:1047E000704700008168002908BF00F091BE91E881
:1047F0000C106345A2F101020A600BD083420FD076
:10480000844513D0D0E90312D160C1680A6100F079
:104810007FBE00BF0022C1E9012200F079BE00BFC7
:10482000C2684A600021116100F072BE02698A60AC
:104830000021D16000F06CBE8168002908BF00F043
:1048400067BE91E80C106345A2F101020A600BD02B
:1048500083420FD0844513D0D0E90312D160C168E0
:104860000A6100F055BE00BF0022C1E9012200F03C
:104870004FBE00BFC2684A600021116100F048BE0F
:1048800002698A600021D16000F042BE816800297F
:1048900008BF00F03DBE91E80C106345A2F1010293
:1048A0000A600BD083420FD0844513D0D0E90312A5
:1048B000D160C1680A6100F02BBE00BF0022C1E9CF
:1048C000012200F025BE00BFC2684A6000211161CC
:1048D00000F01EBE02698A600021D16000F018BE9F
:1048E0008168002908BF00F013BE91E80C106345F1
:1048F000A2F101020A600BD083420FD0844513D08D
:10490000D0E90312D160C1680A6100F001BE00BFA6
:104910000022C1E9012200F0FBBD00BFC2684A606D
:104920000021116100F0F4BD02698A600021D160AC
:1049300000F0EEBD40F2C003C2F2000307C300F076
:104940003DB8000040F20C00C2F2000000680138DF
:10495000B0FA80F04009704710B540F20C04C2F282
:1049600000042068012807D045F6607104A0C0F655
:1049700000014922FFF7DEFF0020206010BD00BFCC
:1049800066616C6C0000000010B540F25014EFF34B
:10499000108072B6C2F20004206838B145F660712A
:1049A00004A0C0F600013F22FFF7C4FF01202060F1
:1049B00010BD00BF6C6F636B00000000FBF72AFDA9
:1049C000EFF31080EFF3108172B67047002818BF24
:1049D000704762B67047000010B540F25014C2F242
:1049E00000042068012807D045F6607104A0C0F6D5
:1049F00000014322FFF79EFF0020206062B610BD39
:104A0000756E6C6F636B000010B540F20C04C2F25F
:104A10000004206838B145F6607104A0C0F60001BA
:104A20004E22FFF787FF0120206010BD636F6D6588
:104A30006261636B0000000010B50446FFF78CFF55
:104A4000204610BD10B50446FFF7DEFF204610BD1E
:104A5000B0B540F24415C2F2000529680446B229F7
:104A600008D1FFF76FFF48B1FFF7AAFF55F8082FED
:104A700001460EE0002120462160B0BD284650F8D6
:104A8000042F0AB1002105E0FFF77EFF55F8042F3F
:104A9000002128460132026020462160B0BD00009E
:104AA00070B540F24416C2F2000631680446B229DD
:104AB00014D12568FFF746FF40B1B0680138B060F7
:104AC0002846FFF783FF204670BD00BF70680128AD
:104AD00004DB0138706008BFFFF77EFF204670BD21
:104AE0006FF0B101016070477047000010B50446D7
:104AF000406818B1BDE81040004700BF04A007A1FE
:104B00001222FFF717FF6068BDE81040004700BFA2
:104B10006F70657261746F72282900002E2E2F2E1F
:104B20002E2F2E2E2F2E2E2F7265666572656E63C8
:104B3000652F726F626F73642D7265665C636F724E
:104B4000652F726F626F73645F64656C6567617413
:104B50002E687070000000000378DBB102304AF666
:104B60004F4C00BF89B210F8012C03FB0C118AB125
:104B700089B2037802FB0C1163B189B2427803FB5E
:104B80000C113AB189B2837802FB0C11002B00F1B1
:104B90000400E7D188B270477047704770B515467A
:104BA000059A0E4689681C463AB188420AD0406888
:104BB0004968FBF7F1FC28B170BD4068496888423C
:104BC00018BF70BD31462A462346BDE8704000F04C
:104BD00072B82DE9F0411646069A0C468968984647
:104BE00007468AB18F4230D07D6849682846FBF776
:104BF000D3FC50B3206887420ED041682846FBF7AB
:104C0000CBFC48B1BDE8F0817868496888421CD087
:104C1000216849688842F5D12069B04220D0606996
:104C2000B0421DD0D4E90910C4F820800130012918
:104C30006661A06205D1A069022804BF012084F842
:104C400036000420E062BDE8F0816068B042D9D14E
:104C5000E06901281CBFC4F81C80BDE8F081D1E7E1
:104C6000B8F1010F18BFBDE8F08101202062BDE856
:104C7000F08180B5D1F808C0D0F804E0DCF8040079
:104C8000864518BF80BD086950B190420DD0486A72
:104C90000130486202208861012081F8360009E075
:104CA00001200A618B61486280BD8869022804BFC7
:104CB0008B6180BD80BD80B548684FF0010E984281
:104CC00081F835E000D080BD0B69DDF808C081F8BF
:104CD00034E02BB193420FD0486A0130486217E0AC
:104CE0000120BCF1010F0A61C1F818C04862EAD185
:104CF000086B01280CD0E6E78A69022A04BFC1F8D4
:104D000018C06246086B012818BF80BD012ADAD19D
:104D1000012081F8360080BDF0B58FB005464068AF
:104D20004B6898422DD045F2BC731446C0F6000380
:104D300045F2C872C0F60002084619460023002654
:104D400000F010FCF0B101AE0746301D3421FBF736
:104D500071FB4FF0FF3004900120019703950D90F7
:104D600038682268C569384631460123A847079844
:104D70000138B0FA80F04FEA501604BF0598206061
:104D800000E0012630460FB0F0BD2DE9F04383B0BE
:104D9000DDE90A940E46896898461546074674B1BF
:104DA0008F4204D078684968FBF7F6FB58B9314662
:104DB0002A46434603B0BDE8F043FFF77CBF78685E
:104DC00049688842F3D0B8682A46016843464F696B
:104DD0003146CDF800900194B84703B0BDE8F083A8
:104DE0002DE9F04383B0DDF828900C468968984699
:104DF0001546B9F1000F074630D08F4240D07E688B
:104E000049683046FBF7C8FBD0B32068874204D01E
:104E100041683046FBF7C0FB40BB2069A84238D050
:104E20006069A84235D0E06AC4F82080042838D0F0
:104E30000020A086B8682A4601682B464F690121E8
:104E400000912146CDF80490B84794F8350030B36E
:104E500094F834000321E16280BB22E0786849685D
:104E600088420DD0216849688842D6D0B8682A4661
:104E7000016843468F692146CDF80090B8471DE090
:104E80006068A8421AD1E069012818BFC4F81C80E4
:104E900014E0B8F1010F04BF012020620EE00420ED
:104EA000E062D4E90910656101300129A06205D1F1
:104EB000A069022804BF012084F8360003B0BDE8D1
:104EC000F08380B5D1F808C0D0F804E0DCF804C065
:104ED000E64507D08068D0F800C0DCF81CC0BDE80B
:104EE00080406047086950B190420DD0486A013057
:104EF000486202208861012081F8360009E0012023
:104F00000A618B61486280BD8869022804BF8B6199
:104F100080BD80BD2DE9F04F85B0DDE90E5A0C460D
:104F200089689B461746BAF1000F80460FD0884526
:104F300005D0D8F804004968FBF72EFB60B921467C
:104F40003A465B4605B0BDE8F04FFFF7B4BED8F86F
:104F5000040049688842F2D0D8F8141094F83460FC
:104F600094F83530D8F80C900020A086C8074FEA96
:104F70002122039302D0DBF800008258D8F81000F9
:104F8000890701680BEB02032A4604954D6958BF57
:104F90000222009221463A46CDF804A0A84794F890
:104FA000341094F83500039A0E43B9F1020F40EA29
:104FB00002053DDB08EBC902103208F1180903971E
:104FC000029200BF94F8362092BB39B1A069012843
:104FD0002ED098F80800800705D429E018B198F879
:104FE0000800C00724D00020A086D9F80410C80704
:104FF0004FEA212202D0DBF80000825859F8080B52
:10500000890701680BEB0203049A4F6958BF02221B
:105010000092039A2146CDF804A0B84794F83410C2
:1050200094F83500029A0E43914545EA0005C9D32C
:10503000002E18BF0126002D18BF012584F834600A
:1050400084F8355005B0BDE8F08F00002DE9F04F31
:1050500083B0DDF830900C46896898469346B9F1E4
:10506000000F07466ED08F4200F0B5807E68496819
:105070003046FBF791FA002800F0AD8020688742A7
:1050800005D041683046FBF787FA002862D12069D5
:10509000584500F0A9806069584500F0A580E06A95
:1050A000C4F82080042800F0F580F868002840F358
:1050B000E48007EBC000103007F110064FF0000845
:1050C0004FF0000A029000BF0020A0867168C80758
:1050D0004FEA212202D0DBF80000825830688907AD
:1050E00001680BEB02034FF001024D6958BF022229
:1050F000009221465A46CDF80490A84794F836000D
:10510000D0B994F8350098B194F8340058B1A0693A
:10511000012800F0B780387A4FF0010A80074FF07D
:10512000010805D4B0E0387AC00709D04FF0010A71
:10513000029808368642C7D35FEACA7000F0A080A2
:10514000C246A1E078684968884244D0216849682D
:1051500088429CD07969FE68C8074FEA212202D0B4
:10516000DBF8000082583869890701685A448D6964
:105170004346214658BF0223CDF80090A847022E8F
:10518000C0F29680B86807EBC60101F110068107EE
:1051900007F1180702D4616A01292BD194F836006F
:1051A000002840F085807968C8074FEA212202D0A4
:1051B000DBF80000825857F8080B890701685A4449
:1051C0008D694346214658BF0223CDF80090A84779
:1051D000B742E3D36CE06068584569D1E0690128C3
:1051E00018BFC4F81C8063E0B8F1010F04BF0120B0
:1051F00020625DE0C0071FD194F83600002857D127
:10520000606A012854D07968C8074FEA212202D089
:10521000DBF80000825857F8080B890701685A44E8
:105220008D694346214658BF0223CDF80090A84718
:10523000B742E1D33CE000BF94F83600C0BB606ADF
:10524000012802D1A069012832D07968C8074FEA45
:10525000212202D0DBF80000825857F8080B89079A
:1052600001685A448D694346214658BF0223CDF850
:105270000090A847B742DFD31AE00420E06209E0BB
:10528000042003E04FF0010A0320D0465FEAC87112
:10529000E0620DD1D4E90910C4F814B0013001293D
:1052A000A06205D1A069022804BF012084F836005D
:1052B00003B0BDE8F08F00002DE9F0478146886813
:1052C0000C46D9F8041040689A468142164621D00F
:1052D00009F11008D9F80C50404621463246534691
:1052E00000F035F8022D13DB08EBC50709F12005A6
:1052F000A5F1080021463246534600F028F8BD4289
:1053000028BFBDE8F08794F8360008350028EFD0B4
:10531000BDE8F087206958B1B04210D0606A013012
:1053200060620220A061012084F83600BDE8F087A9
:1053300001202661C4F818A06062BDE8F087A0696A
:10534000022804BFC4F818A0BDE8F087E0E710B554
:10535000D0F804C042B15FEACC7E4FEA2C2E05D0D3
:10536000146854F80EE001E04FF0000E00685FEAA8
:105370008C7458BF022304687244D4F81CC0BDE882
:10538000104060477047000080B57838FEF744F958
:10539000BDE8804000F0BCB87838FEF73DB90000A9
:1053A000FEDE0000B0B545F6C061C0F60001083170
:1053B000034643F8181D9A68A3F1600C32B3D2E992
:1053C0000041D2F808E0013C714514600AD09942CE
:1053D0000CD09E4510D0DCE91B12D160DCF86C10BB
:1053E00008E000BF0021C2E901110AE0DCF86C10FE
:1053F000516000220A6104E0DCF870109160002224
:10540000CA600021CCE91A11CCF8701045F64C6145
:10541000C0F600010831CCF8001045F6D061C0F6A6
:105420000001DCF82C3001F1080E614641F824EF50
:1054300023B3D3E900549A68013D94421D6009D01A
:105440008C420BD08A420FD0DCE90C12D160DCF820
:10545000301007E00021C3E901110AE0DCF8301048
:10546000002259600A6104E0DCF8341000229960DF
:10547000CA600021CCE90B11CCF83410034643F884
:1054800074ED9A68002A08BFB0BDD2E90054916853
:10549000013D8C42156009D09C4211D099421BD02D
:1054A00050E91A12D16050F8681C0DE00021C2E9E1
:1054B0000111002140E91B1140F8641CB0BD00BF80
:1054C00050F8681C516000220A61002140E91B115C
:1054D00040F8641CB0BD00BFDCF8141091600022DD
:1054E000CA60002140E91B1140F8641CB0BD0000F7
:1054F0007838FDF7D7BE000080B56038FDF722FF91
:10550000BDE8804000F004B86038FDF71BBF000024
:10551000FAF7E1BEFAF7B0BE01A000F077F800BFDD
:1055200050757265207669727475616C2066756E4F
:105530006374696F6E2063616C6C656421000000A8
:1055400040F23010C2F200000178C90718BF70475E
:1055500040F23411C2F200010022C1E9002201210F
:1055600001607047F0B591B01446026852E90256E6
:10557000CDE90340054403A8CDE9051310302721E8
:10558000FAF758FF7068616888421BD030680024C1
:10559000876903A930462A4601230094B8470C982E
:1055A000012821D078BB0D99DDE90A0281F00101C3
:1055B00080F00100089C82F001020843104318BFEC
:1055C000002420E001200F90316800274C690090F2
:1055D00003A930462A462B460197A047099801287F
:1055E00018BF3D462C460EE00998012801D1079CC2
:1055F00009E00D98002430B90A98012803D10B98CE
:10560000012808BF079C204611B0F0BDFAF702FF41
:10561000FBF710FEFDF7DCFAFDF742F9FDF7B0FAF3
:10562000FDF7E4F9FDF7B8F8FDF7BAF9FDF714F95D
:1056300000F006F800F042F800F014F8FCE7000073
:1056400010B540F2CC00C2F2000080684468002C23
:1056500008BF10BD6068016809688847E468002CCD
:10566000F8D110BDB0B540F23414C2F20004D4E950
:105670000001012908BF002804D12046FEF748FE9A
:105680000120206040F2CC01C2F2000189684D6B1C
:1056900045B100BF6868016809688847ED68002D5A
:1056A000F8D12068012808D16068012818BFB0BD72
:1056B0002046FEF737FE00202060B0BDB0B540F2B6
:1056C000CC04C2F20004A068056935B168680168BD
:1056D00009688847ED68002DF8D1FEF71FF904F13D
:1056E0001C00FEF777F9002818BFB0BD45F6AC7076
:1056F00045F6E471C0F60000C0F600011222BDE8D4
:10570000B040FFF717B9000080B5017811B94178B2
:10571000012901D1002080BD89075FBF02214170AE
:10572000012080BD01A0FFF771FF00BF5F5F6378BC
:10573000615F67756172645F61637175697265202D
:1057400064657465637465642072656375727369FA
:10575000766520696E697469616C697A6174696FD4
:105760006E0000000121017041707047F1EE100AD7
:105770004FF6FF71C0F2C03120EA010040F04070E6
:10578000E1EE100A70470000540100206001002083
:105790006C0100207801002084010020000000003E
:1057A00000000000010203040607080900000000D1
:1057B00001020304545D0008505900087C5D000894
:1057C00055590008485900087C5D000876590008C2
:1057D000BC5700087C5D000898590008C8570008AD
:1057E0007C5D0008BD590008C85700087C5D0008B2
:1057F000E35900086C580008A45D0008F759000838
:1058000000000000020000008858000802000000AC
:105810004458000802600000A45D0008265A0008F1
:105820000000000002000000945800080200000080
:1058300074580008026000007C5D0008505A00089F
:10584000B8580008A45D00086D5A00080000000068
:10585000020000006458000802000000B45700086D
:10586000020C0000545D0008825A0008545D0008D4
:10587000955A0008545D0008A25A00087C5D000893
:10588000B25A00086C5800087C5D0008C15A000834
:105890007C5800087C5D0008E25A00087C5800082B
:1058A0007C5D0008095B00083C5900087C5D00082D
:1058B000255B000834590008A45D0008425B00081D
:1058C0000000000002000000EC5700080200000089
:1058D000AC580008027800007C5D0008545B0008AA
:1058E000EC580008545D00088B5B0008545D00080C
:1058F000B65B0008545D0008DA5B0008545D0008E0
:10590000005C00087C5D0008345C0008E458000876
:105910007C5D0008635C0008EC5800087C5D0008B2
:105920008B5C0008F45800087C5D0008B55C00083A
:10593000FC580008545D0008ED5C00087C5D000820
:10594000075D0008AC580008545D00083F5D000882
:105950003370776D004E31305F5F637878616269D4
:10596000763131365F5F7368696D5F747970655F3A
:10597000696E666F45004E31305F5F6378786162B3
:1059800069763131375F5F636C6173735F7479700F
:10599000655F696E666F45004E31305F5F63787892
:1059A000616269763132305F5F73695F636C617326
:1059B000735F747970655F696E666F45004E313054
:1059C0005F5F637878616269763132315F5F766DEF
:1059D000695F636C6173735F747970655F696E662C
:1059E0006F45004E346D65786F3130697375627341
:1059F000797374656D45004E346D65786F31386329
:105A00006F6E74726F6C6C65725F626C6F636B5FEC
:105A100074494E535F3270733370776D49337077CA
:105A20006D45454545004E346D65786F3138636F7F
:105A30006E74726F6C6C65725F626C6F636B5F74B7
:105A4000494E535F3472616D704966454545450066
:105A50004E346D65786F31397072696F7269746533
:105A6000745F73756273797374656D45004E346D40
:105A700065786F3270733370776D493370776D4529
:105A800045004E346D65786F32707337636F6E7496
:105A9000726F6C45004E346D65786F346E6F64655F
:105AA00045004E346D65786F3472616D704966459E
:105AB00045004E346D65786F3669626C6F636B4577
:105AC000004E346D65786F37626C6F636B5F74493D
:105AD0004E3370776D38636F6E6669675F734545E7
